{
	"data": {
		"bytecode": {
			"linkReferences": {},
			"object": "6101606040523480156200001257600080fd5b5060405162001bae38038062001bae8339810160408190526200003591620001eb565b33806000816200008c5760405162461bcd60e51b815260206004820152601860248201527f43616e6e6f7420736574206f776e657220746f207a65726f000000000000000060448201526064015b60405180910390fd5b600080546001600160a01b0319166001600160a01b0384811691909117909155811615620000bf57620000bf8162000123565b50506001600255506001600160a01b0393841660805291831660a0526003805463ffffffff909316600160a01b026001600160c01b03199093169190931617179055603260c052601e60e052601461010052603c61012052604b6101405262000252565b336001600160a01b038216036200017d5760405162461bcd60e51b815260206004820152601760248201527f43616e6e6f74207472616e7366657220746f2073656c66000000000000000000604482015260640162000083565b600180546001600160a01b0319166001600160a01b0383811691821790925560008054604051929316917fed8889f560326eb138920d842192f0eb3dd22b4f139c87a2c57538e05bae12789190a350565b80516001600160a01b0381168114620001e657600080fd5b919050565b600080600080608085870312156200020257600080fd5b6200020d85620001ce565b93506200021d60208601620001ce565b92506200022d60408601620001ce565b9150606085015163ffffffff811681146200024757600080fd5b939692955090935050565b60805160a05160c05160e0516101005161012051610140516118b4620002fa600039600081816104bb0152610c0d01526000610bb201526000818161077b015261080201526000818161079f015261083a0152600081816107c0015261086f01526000818161029d0152610d2d015260008181610307015281816104030152818161070a015281816109bc01528181610a2401528181610af50152610c7601526118b46000f3fe608060405234801561001057600080fd5b50600436106100b45760003560e01c80638dd1ffa6116100715780638dd1ffa6146101425780639775fc3c14610155578063bc197c8114610168578063f23a6e6114610194578063f2fde38b146101a7578063ff60987c146101ba57600080fd5b806301ffc9a7146100b9578063371fd8e6146100e15780635fae8b3d146100f65780637470215d1461010957806379ba50971461011f5780638da5cb5b14610127575b600080fd5b6100cc6100c736600461118f565b6101cd565b60405190151581526020015b60405180910390f35b6100f46100ef3660046111b9565b610204565b005b6100f46101043660046111ee565b6103a8565b610111610530565b6040519081526020016100d8565b6100f4610638565b6000546040516001600160a01b0390911681526020016100d8565b6101116101503660046111b9565b6106e7565b6100f461016336600461121a565b610975565b61017b6101763660046112e8565b6109af565b6040516001600160e01b031990911681526020016100d8565b61017b6101a23660046113a3565b610a0f565b6100f46101b536600461141b565b610a7f565b6100f46101c836600461147d565b610a90565b60006001600160e01b03198216630271189760e51b14806101fe57506001600160e01b031982166301ffc9a760e01b145b92915050565b61020c610da6565b600081815260046020908152604080832033845282528083208151606081018352815481526001820154938101849052600290910154918101919091529103610268576040516369973fe360e11b815260040160405180910390fd5b60008281526004602090815260408083203380855290835290832083815560018101849055600201929092558201516102cd917f00000000000000000000000000000000000000000000000000000000000000006001600160a01b0316913090610dce565b8051604051637921219560e11b815230600482015233602482015260448101849052606481019190915260a06084820152600060a48201527f00000000000000000000000000000000000000000000000000000000000000006001600160a01b03169063f242432a9060c401600060405180830381600087803b15801561035357600080fd5b505af1158015610367573d6000803e3d6000fd5b505082516040519092508491507f678b816bfd16ff03127c489332bec2b8031c7a7491178f87e75adda9bcd9acdf90600090a3506103a56001600255565b50565b60008281526004602081815260408084206001600160a01b0386811686529083528185208251606081018452815481526001820154948101949094526002015483830152905163bd85b03960e01b81529283018690529092917f00000000000000000000000000000000000000000000000000000000000000009091169063bd85b03990602401602060405180830381865afa15801561044c573d6000803e3d6000fd5b505050506040513d601f19601f820116820180604052508101906104709190611537565b825161047b866106e7565b6104859190611566565b61048f9190611593565b9050806000036104b25760405163078eb9e760e31b815260040160405180910390fd5b600060646104e07f000000000000000000000000000000000000000000000000000000000000000084611566565b6104ea9190611593565b905082604001518110156105295760008581526004602090815260408083206001600160a01b0388168452909152812081815560018101829055600201555b5050505050565b600080600080600360009054906101000a90046001600160a01b03166001600160a01b031663feaf968c6040518163ffffffff1660e01b815260040160a060405180830381865afa9250505080156105a5575060408051601f3d908101601f191682019092526105a2918101906115cc565b60015b6105c25760405163bc2332ed60e01b815260040160405180910390fd5b5092955090935090915050826001600160501b03166000036105f75760405163bfbe031f60e01b815260040160405180910390fd5b60035461061190600160a01b900463ffffffff164261161c565b81101561063157604051631087e10960e01b815260040160405180910390fd5b5092915050565b6001546001600160a01b031633146106905760405162461bcd60e51b815260206004820152601660248201527526bab9ba10313290383937b837b9b2b21037bbb732b960511b60448201526064015b60405180910390fd5b60008054336001600160a01b0319808316821784556001805490911690556040516001600160a01b0390921692909183917f8be0079c531659141344cd1fd0a4f28419497f9722a3daafe3b4186f6b6457e091a350565b6040516301e1da5d60e71b81526004810182905260009081906001600160a01b037f0000000000000000000000000000000000000000000000000000000000000000169063f0ed2e8090602401606060405180830381865afa158015610751573d6000803e3d6000fd5b505050506040513d601f19601f82011682018060405250810190610775919061162f565b905060007f00000000000000000000000000000000000000000000000000000000000000006107e47f00000000000000000000000000000000000000000000000000000000000000007f000000000000000000000000000000000000000000000000000000000000000061169b565b6107ee919061169b565b6040830151610826906001600160501b03167f0000000000000000000000000000000000000000000000000000000000000000611566565b602084015161085e906001600160501b03167f0000000000000000000000000000000000000000000000000000000000000000611566565b8451610893906001600160501b03167f0000000000000000000000000000000000000000000000000000000000000000611566565b61089d919061169b565b6108a7919061169b565b6108b19190611593565b905060006108bd610530565b90506000600360009054906101000a90046001600160a01b03166001600160a01b031663313ce5676040518163ffffffff1660e01b8152600401602060405180830381865afa158015610914573d6000803e3d6000fd5b505050506040513d601f19601f8201168201806040525081019061093891906116ae565b60ff1690506006600061096961094e8587611566565b61095984600a6117b5565b61096486600a6117b5565b610e3b565b98975050505050505050565b61097d610f00565b6003805463ffffffff909216600160a01b026001600160c01b03199092166001600160a01b0390931692909217179055565b6000336001600160a01b037f000000000000000000000000000000000000000000000000000000000000000016146109fa57604051634f2a2fb560e11b815260040160405180910390fd5b5063bc197c8160e01b98975050505050505050565b6000610a19610da6565b336001600160a01b037f00000000000000000000000000000000000000000000000000000000000000001614610a6257604051634f2a2fb560e11b815260040160405180910390fd5b5063f23a6e6160e01b610a756001600255565b9695505050505050565b610a87610f00565b6103a581610f55565b610a98610da6565b600085815260046020908152604080832033845290915290206001015415610adc576040516308e99bf560e11b815233600482015260248101869052604401610687565b60405163bd85b03960e01b8152600481018690526000907f00000000000000000000000000000000000000000000000000000000000000006001600160a01b03169063bd85b03990602401602060405180830381865afa158015610b44573d6000803e3d6000fd5b505050506040513d601f19601f82011682018060405250810190610b689190611537565b85610b72886106e7565b610b7c9190611566565b610b869190611593565b905080600003610ba95760405163078eb9e760e31b815260040160405180910390fd5b60006064610bd77f000000000000000000000000000000000000000000000000000000000000000084611566565b610be19190611593565b905083811015610c045760405163339454fb60e11b815260040160405180910390fd5b60006064610c327f000000000000000000000000000000000000000000000000000000000000000085611566565b610c3c9190611593565b905083811115610c5f5760405163339454fb60e11b815260040160405180910390fd5b604051637921219560e11b81526001600160a01b037f0000000000000000000000000000000000000000000000000000000000000000169063f242432a90610cb390339030908d908d908d906004016117e5565b600060405180830381600087803b158015610ccd57600080fd5b505af1158015610ce1573d6000803e3d6000fd5b5050604080516060810182528a8152602080820187815282840187815260008f81526004845285812033808352945294909420925183555160018301559151600290910155610d5d92507f00000000000000000000000000000000000000000000000000000000000000006001600160a01b0316915084610ffe565b8082897ffc2baa24cbbf617bfa430e509fa2184b87665b3272db852e583b677125dfc3cb8a604051610d9191815260200190565b60405180910390a45050506105296001600255565b6002805403610dc857604051633ee5aeb560e01b815260040160405180910390fd5b60028055565b6040516001600160a01b038481166024830152838116604483015260648201839052610e359186918216906323b872dd906084015b604051602081830303815290604052915060e01b6020820180516001600160e01b038381831617835250505050611034565b50505050565b6000838302816000198587098281108382030391505080600003610e7257838281610e6857610e6861157d565b0492505050610ef9565b808411610e925760405163227bc15360e01b815260040160405180910390fd5b6000848688096000868103871696879004966002600389028118808a02820302808a02820302808a02820302808a02820302808a02820302808a02909103029181900381900460010186841190950394909402919094039290920491909117919091029150505b9392505050565b6000546001600160a01b03163314610f535760405162461bcd60e51b815260206004820152601660248201527527b7363c9031b0b63630b1363290313c9037bbb732b960511b6044820152606401610687565b565b336001600160a01b03821603610fad5760405162461bcd60e51b815260206004820152601760248201527f43616e6e6f74207472616e7366657220746f2073656c660000000000000000006044820152606401610687565b600180546001600160a01b0319166001600160a01b0383811691821790925560008054604051929316917fed8889f560326eb138920d842192f0eb3dd22b4f139c87a2c57538e05bae12789190a350565b6040516001600160a01b0383811660248301526044820183905261102f91859182169063a9059cbb90606401610e03565b505050565b60006110496001600160a01b03841683611097565b9050805160001415801561106e57508080602001905181019061106c9190611840565b155b1561102f57604051635274afe760e01b81526001600160a01b0384166004820152602401610687565b6060610ef98383600084600080856001600160a01b031684866040516110bd9190611862565b60006040518083038185875af1925050503d80600081146110fa576040519150601f19603f3d011682016040523d82523d6000602084013e6110ff565b606091505b5091509150610a7586838360608261111f5761111a82611166565b610ef9565b815115801561113657506001600160a01b0384163b155b1561115f57604051639996b31560e01b81526001600160a01b0385166004820152602401610687565b5080610ef9565b8051156111765780518082602001fd5b604051630a12f52160e11b815260040160405180910390fd5b6000602082840312156111a157600080fd5b81356001600160e01b031981168114610ef957600080fd5b6000602082840312156111cb57600080fd5b5035919050565b80356001600160a01b03811681146111e957600080fd5b919050565b6000806040838503121561120157600080fd5b82359150611211602084016111d2565b90509250929050565b6000806040838503121561122d57600080fd5b611236836111d2565b9150602083013563ffffffff8116811461124f57600080fd5b809150509250929050565b60008083601f84011261126c57600080fd5b50813567ffffffffffffffff81111561128457600080fd5b6020830191508360208260051b850101111561129f57600080fd5b9250929050565b60008083601f8401126112b857600080fd5b50813567ffffffffffffffff8111156112d057600080fd5b60208301915083602082850101111561129f57600080fd5b60008060008060008060008060a0898b03121561130457600080fd5b61130d896111d2565b975061131b60208a016111d2565b9650604089013567ffffffffffffffff8082111561133857600080fd5b6113448c838d0161125a565b909850965060608b013591508082111561135d57600080fd5b6113698c838d0161125a565b909650945060808b013591508082111561138257600080fd5b5061138f8b828c016112a6565b999c989b5096995094979396929594505050565b60008060008060008060a087890312156113bc57600080fd5b6113c5876111d2565b95506113d3602088016111d2565b94506040870135935060608701359250608087013567ffffffffffffffff8111156113fd57600080fd5b61140989828a016112a6565b979a9699509497509295939492505050565b60006020828403121561142d57600080fd5b610ef9826111d2565b634e487b7160e01b600052604160045260246000fd5b604051601f8201601f1916810167ffffffffffffffff8111828210171561147557611475611436565b604052919050565b600080600080600060a0868803121561149557600080fd5b853594506020808701359450604087013567ffffffffffffffff808211156114bc57600080fd5b818901915089601f8301126114d057600080fd5b8135818111156114e2576114e2611436565b6114f4601f8201601f1916850161144c565b91508082528a8482850101111561150a57600080fd5b80848401858401376000908201909301929092525094979396509394606081013594506080013592915050565b60006020828403121561154957600080fd5b5051919050565b634e487b7160e01b600052601160045260246000fd5b80820281158282048414176101fe576101fe611550565b634e487b7160e01b600052601260045260246000fd5b6000826115b057634e487b7160e01b600052601260045260246000fd5b500490565b80516001600160501b03811681146111e957600080fd5b600080600080600060a086880312156115e457600080fd5b6115ed866115b5565b9450602086015193506040860151925060608601519150611610608087016115b5565b90509295509295909350565b818103818111156101fe576101fe611550565b60006060828403121561164157600080fd5b6040516060810181811067ffffffffffffffff8211171561166457611664611436565b604052611670836115b5565b815261167e602084016115b5565b602082015261168f604084016115b5565b60408201529392505050565b808201808211156101fe576101fe611550565b6000602082840312156116c057600080fd5b815160ff81168114610ef957600080fd5b600181815b8085111561170c5781600019048211156116f2576116f2611550565b808516156116ff57918102915b93841c93908002906116d6565b509250929050565b600082611723575060016101fe565b81611730575060006101fe565b816001811461174657600281146117505761176c565b60019150506101fe565b60ff84111561176157611761611550565b50506001821b6101fe565b5060208310610133831016604e8410600b841016171561178f575081810a6101fe565b61179983836116d1565b80600019048211156117ad576117ad611550565b029392505050565b6000610ef98383611714565b60005b838110156117dc5781810151838201526020016117c4565b50506000910152565b600060018060a01b03808816835280871660208401525084604083015283606083015260a0608083015282518060a08401526118288160c08501602087016117c1565b601f01601f19169190910160c0019695505050505050565b60006020828403121561185257600080fd5b81518015158114610ef957600080fd5b600082516118748184602087016117c1565b919091019291505056fea26469706673582212202fb360818db32e9d092e8c9dba1ac5ebfb52eee8695ca0b93019165f7ae7b50c64736f6c63430008180033",
			"opcodes": "PUSH2 0x160 PUSH1 0x40 MSTORE CALLVALUE DUP1 ISZERO PUSH3 0x12 JUMPI PUSH1 0x0 DUP1 REVERT JUMPDEST POP PUSH1 0x40 MLOAD PUSH3 0x1BAE CODESIZE SUB DUP1 PUSH3 0x1BAE DUP4 CODECOPY DUP2 ADD PUSH1 0x40 DUP2 SWAP1 MSTORE PUSH3 0x35 SWAP2 PUSH3 0x1EB JUMP JUMPDEST CALLER DUP1 PUSH1 0x0 DUP2 PUSH3 0x8C JUMPI PUSH1 0x40 MLOAD PUSH3 0x461BCD PUSH1 0xE5 SHL DUP2 MSTORE PUSH1 0x20 PUSH1 0x4 DUP3 ADD MSTORE PUSH1 0x18 PUSH1 0x24 DUP3 ADD MSTORE PUSH32 0x43616E6E6F7420736574206F776E657220746F207A65726F0000000000000000 PUSH1 0x44 DUP3 ADD MSTORE PUSH1 0x64 ADD JUMPDEST PUSH1 0x40 MLOAD DUP1 SWAP2 SUB SWAP1 REVERT JUMPDEST PUSH1 0x0 DUP1 SLOAD PUSH1 0x1 PUSH1 0x1 PUSH1 0xA0 SHL SUB NOT AND PUSH1 0x1 PUSH1 0x1 PUSH1 0xA0 SHL SUB DUP5 DUP2 AND SWAP2 SWAP1 SWAP2 OR SWAP1 SWAP2 SSTORE DUP2 AND ISZERO PUSH3 0xBF JUMPI PUSH3 0xBF DUP2 PUSH3 0x123 JUMP JUMPDEST POP POP PUSH1 0x1 PUSH1 0x2 SSTORE POP PUSH1 0x1 PUSH1 0x1 PUSH1 0xA0 SHL SUB SWAP4 DUP5 AND PUSH1 0x80 MSTORE SWAP2 DUP4 AND PUSH1 0xA0 MSTORE PUSH1 0x3 DUP1 SLOAD PUSH4 0xFFFFFFFF SWAP1 SWAP4 AND PUSH1 0x1 PUSH1 0xA0 SHL MUL PUSH1 0x1 PUSH1 0x1 PUSH1 0xC0 SHL SUB NOT SWAP1 SWAP4 AND SWAP2 SWAP1 SWAP4 AND OR OR SWAP1 SSTORE PUSH1 0x32 PUSH1 0xC0 MSTORE PUSH1 0x1E PUSH1 0xE0 MSTORE PUSH1 0x14 PUSH2 0x100 MSTORE PUSH1 0x3C PUSH2 0x120 MSTORE PUSH1 0x4B PUSH2 0x140 MSTORE PUSH3 0x252 JUMP JUMPDEST CALLER PUSH1 0x1 PUSH1 0x1 PUSH1 0xA0 SHL SUB DUP3 AND SUB PUSH3 0x17D JUMPI PUSH1 0x40 MLOAD PUSH3 0x461BCD PUSH1 0xE5 SHL DUP2 MSTORE PUSH1 0x20 PUSH1 0x4 DUP3 ADD MSTORE PUSH1 0x17 PUSH1 0x24 DUP3 ADD MSTORE PUSH32 0x43616E6E6F74207472616E7366657220746F2073656C66000000000000000000 PUSH1 0x44 DUP3 ADD MSTORE PUSH1 0x64 ADD PUSH3 0x83 JUMP JUMPDEST PUSH1 0x1 DUP1 SLOAD PUSH1 0x1 PUSH1 0x1 PUSH1 0xA0 SHL SUB NOT AND PUSH1 0x1 PUSH1 0x1 PUSH1 0xA0 SHL SUB DUP4 DUP2 AND SWAP2 DUP3 OR SWAP1 SWAP3 SSTORE PUSH1 0x0 DUP1 SLOAD PUSH1 0x40 MLOAD SWAP3 SWAP4 AND SWAP2 PUSH32 0xED8889F560326EB138920D842192F0EB3DD22B4F139C87A2C57538E05BAE1278 SWAP2 SWAP1 LOG3 POP JUMP JUMPDEST DUP1 MLOAD PUSH1 0x1 PUSH1 0x1 PUSH1 0xA0 SHL SUB DUP2 AND DUP2 EQ PUSH3 0x1E6 JUMPI PUSH1 0x0 DUP1 REVERT JUMPDEST SWAP2 SWAP1 POP JUMP JUMPDEST PUSH1 0x0 DUP1 PUSH1 0x0 DUP1 PUSH1 0x80 DUP6 DUP8 SUB SLT ISZERO PUSH3 0x202 JUMPI PUSH1 0x0 DUP1 REVERT JUMPDEST PUSH3 0x20D DUP6 PUSH3 0x1CE JUMP JUMPDEST SWAP4 POP PUSH3 0x21D PUSH1 0x20 DUP7 ADD PUSH3 0x1CE JUMP JUMPDEST SWAP3 POP PUSH3 0x22D PUSH1 0x40 DUP7 ADD PUSH3 0x1CE JUMP JUMPDEST SWAP2 POP PUSH1 0x60 DUP6 ADD MLOAD PUSH4 0xFFFFFFFF DUP2 AND DUP2 EQ PUSH3 0x247 JUMPI PUSH1 0x0 DUP1 REVERT JUMPDEST SWAP4 SWAP7 SWAP3 SWAP6 POP SWAP1 SWAP4 POP POP JUMP JUMPDEST PUSH1 0x80 MLOAD PUSH1 0xA0 MLOAD PUSH1 0xC0 MLOAD PUSH1 0xE0 MLOAD PUSH2 0x100 MLOAD PUSH2 0x120 MLOAD PUSH2 0x140 MLOAD PUSH2 0x18B4 PUSH3 0x2FA PUSH1 0x0 CODECOPY PUSH1 0x0 DUP2 DUP2 PUSH2 0x4BB ADD MSTORE PUSH2 0xC0D ADD MSTORE PUSH1 0x0 PUSH2 0xBB2 ADD MSTORE PUSH1 0x0 DUP2 DUP2 PUSH2 0x77B ADD MSTORE PUSH2 0x802 ADD MSTORE PUSH1 0x0 DUP2 DUP2 PUSH2 0x79F ADD MSTORE PUSH2 0x83A ADD MSTORE PUSH1 0x0 DUP2 DUP2 PUSH2 0x7C0 ADD MSTORE PUSH2 0x86F ADD MSTORE PUSH1 0x0 DUP2 DUP2 PUSH2 0x29D ADD MSTORE PUSH2 0xD2D ADD MSTORE PUSH1 0x0 DUP2 DUP2 PUSH2 0x307 ADD MSTORE DUP2 DUP2 PUSH2 0x403 ADD MSTORE DUP2 DUP2 PUSH2 0x70A ADD MSTORE DUP2 DUP2 PUSH2 0x9BC ADD MSTORE DUP2 DUP2 PUSH2 0xA24 ADD MSTORE DUP2 DUP2 PUSH2 0xAF5 ADD MSTORE PUSH2 0xC76 ADD MSTORE PUSH2 0x18B4 PUSH1 0x0 RETURN INVALID PUSH1 0x80 PUSH1 0x40 MSTORE CALLVALUE DUP1 ISZERO PUSH2 0x10 JUMPI PUSH1 0x0 DUP1 REVERT JUMPDEST POP PUSH1 0x4 CALLDATASIZE LT PUSH2 0xB4 JUMPI PUSH1 0x0 CALLDATALOAD PUSH1 0xE0 SHR DUP1 PUSH4 0x8DD1FFA6 GT PUSH2 0x71 JUMPI DUP1 PUSH4 0x8DD1FFA6 EQ PUSH2 0x142 JUMPI DUP1 PUSH4 0x9775FC3C EQ PUSH2 0x155 JUMPI DUP1 PUSH4 0xBC197C81 EQ PUSH2 0x168 JUMPI DUP1 PUSH4 0xF23A6E61 EQ PUSH2 0x194 JUMPI DUP1 PUSH4 0xF2FDE38B EQ PUSH2 0x1A7 JUMPI DUP1 PUSH4 0xFF60987C EQ PUSH2 0x1BA JUMPI PUSH1 0x0 DUP1 REVERT JUMPDEST DUP1 PUSH4 0x1FFC9A7 EQ PUSH2 0xB9 JUMPI DUP1 PUSH4 0x371FD8E6 EQ PUSH2 0xE1 JUMPI DUP1 PUSH4 0x5FAE8B3D EQ PUSH2 0xF6 JUMPI DUP1 PUSH4 0x7470215D EQ PUSH2 0x109 JUMPI DUP1 PUSH4 0x79BA5097 EQ PUSH2 0x11F JUMPI DUP1 PUSH4 0x8DA5CB5B EQ PUSH2 0x127 JUMPI JUMPDEST PUSH1 0x0 DUP1 REVERT JUMPDEST PUSH2 0xCC PUSH2 0xC7 CALLDATASIZE PUSH1 0x4 PUSH2 0x118F JUMP JUMPDEST PUSH2 0x1CD JUMP JUMPDEST PUSH1 0x40 MLOAD SWAP1 ISZERO ISZERO DUP2 MSTORE PUSH1 0x20 ADD JUMPDEST PUSH1 0x40 MLOAD DUP1 SWAP2 SUB SWAP1 RETURN JUMPDEST PUSH2 0xF4 PUSH2 0xEF CALLDATASIZE PUSH1 0x4 PUSH2 0x11B9 JUMP JUMPDEST PUSH2 0x204 JUMP JUMPDEST STOP JUMPDEST PUSH2 0xF4 PUSH2 0x104 CALLDATASIZE PUSH1 0x4 PUSH2 0x11EE JUMP JUMPDEST PUSH2 0x3A8 JUMP JUMPDEST PUSH2 0x111 PUSH2 0x530 JUMP JUMPDEST PUSH1 0x40 MLOAD SWAP1 DUP2 MSTORE PUSH1 0x20 ADD PUSH2 0xD8 JUMP JUMPDEST PUSH2 0xF4 PUSH2 0x638 JUMP JUMPDEST PUSH1 0x0 SLOAD PUSH1 0x40 MLOAD PUSH1 0x1 PUSH1 0x1 PUSH1 0xA0 SHL SUB SWAP1 SWAP2 AND DUP2 MSTORE PUSH1 0x20 ADD PUSH2 0xD8 JUMP JUMPDEST PUSH2 0x111 PUSH2 0x150 CALLDATASIZE PUSH1 0x4 PUSH2 0x11B9 JUMP JUMPDEST PUSH2 0x6E7 JUMP JUMPDEST PUSH2 0xF4 PUSH2 0x163 CALLDATASIZE PUSH1 0x4 PUSH2 0x121A JUMP JUMPDEST PUSH2 0x975 JUMP JUMPDEST PUSH2 0x17B PUSH2 0x176 CALLDATASIZE PUSH1 0x4 PUSH2 0x12E8 JUMP JUMPDEST PUSH2 0x9AF JUMP JUMPDEST PUSH1 0x40 MLOAD PUSH1 0x1 PUSH1 0x1 PUSH1 0xE0 SHL SUB NOT SWAP1 SWAP2 AND DUP2 MSTORE PUSH1 0x20 ADD PUSH2 0xD8 JUMP JUMPDEST PUSH2 0x17B PUSH2 0x1A2 CALLDATASIZE PUSH1 0x4 PUSH2 0x13A3 JUMP JUMPDEST PUSH2 0xA0F JUMP JUMPDEST PUSH2 0xF4 PUSH2 0x1B5 CALLDATASIZE PUSH1 0x4 PUSH2 0x141B JUMP JUMPDEST PUSH2 0xA7F JUMP JUMPDEST PUSH2 0xF4 PUSH2 0x1C8 CALLDATASIZE PUSH1 0x4 PUSH2 0x147D JUMP JUMPDEST PUSH2 0xA90 JUMP JUMPDEST PUSH1 0x0 PUSH1 0x1 PUSH1 0x1 PUSH1 0xE0 SHL SUB NOT DUP3 AND PUSH4 0x2711897 PUSH1 0xE5 SHL EQ DUP1 PUSH2 0x1FE JUMPI POP PUSH1 0x1 PUSH1 0x1 PUSH1 0xE0 SHL SUB NOT DUP3 AND PUSH4 0x1FFC9A7 PUSH1 0xE0 SHL EQ JUMPDEST SWAP3 SWAP2 POP POP JUMP JUMPDEST PUSH2 0x20C PUSH2 0xDA6 JUMP JUMPDEST PUSH1 0x0 DUP2 DUP2 MSTORE PUSH1 0x4 PUSH1 0x20 SWAP1 DUP2 MSTORE PUSH1 0x40 DUP1 DUP4 KECCAK256 CALLER DUP5 MSTORE DUP3 MSTORE DUP1 DUP4 KECCAK256 DUP2 MLOAD PUSH1 0x60 DUP2 ADD DUP4 MSTORE DUP2 SLOAD DUP2 MSTORE PUSH1 0x1 DUP3 ADD SLOAD SWAP4 DUP2 ADD DUP5 SWAP1 MSTORE PUSH1 0x2 SWAP1 SWAP2 ADD SLOAD SWAP2 DUP2 ADD SWAP2 SWAP1 SWAP2 MSTORE SWAP2 SUB PUSH2 0x268 JUMPI PUSH1 0x40 MLOAD PUSH4 0x69973FE3 PUSH1 0xE1 SHL DUP2 MSTORE PUSH1 0x4 ADD PUSH1 0x40 MLOAD DUP1 SWAP2 SUB SWAP1 REVERT JUMPDEST PUSH1 0x0 DUP3 DUP2 MSTORE PUSH1 0x4 PUSH1 0x20 SWAP1 DUP2 MSTORE PUSH1 0x40 DUP1 DUP4 KECCAK256 CALLER DUP1 DUP6 MSTORE SWAP1 DUP4 MSTORE SWAP1 DUP4 KECCAK256 DUP4 DUP2 SSTORE PUSH1 0x1 DUP2 ADD DUP5 SWAP1 SSTORE PUSH1 0x2 ADD SWAP3 SWAP1 SWAP3 SSTORE DUP3 ADD MLOAD PUSH2 0x2CD SWAP2 PUSH32 0x0 PUSH1 0x1 PUSH1 0x1 PUSH1 0xA0 SHL SUB AND SWAP2 ADDRESS SWAP1 PUSH2 0xDCE JUMP JUMPDEST DUP1 MLOAD PUSH1 0x40 MLOAD PUSH4 0x79212195 PUSH1 0xE1 SHL DUP2 MSTORE ADDRESS PUSH1 0x4 DUP3 ADD MSTORE CALLER PUSH1 0x24 DUP3 ADD MSTORE PUSH1 0x44 DUP2 ADD DUP5 SWAP1 MSTORE PUSH1 0x64 DUP2 ADD SWAP2 SWAP1 SWAP2 MSTORE PUSH1 0xA0 PUSH1 0x84 DUP3 ADD MSTORE PUSH1 0x0 PUSH1 0xA4 DUP3 ADD MSTORE PUSH32 0x0 PUSH1 0x1 PUSH1 0x1 PUSH1 0xA0 SHL SUB AND SWAP1 PUSH4 0xF242432A SWAP1 PUSH1 0xC4 ADD PUSH1 0x0 PUSH1 0x40 MLOAD DUP1 DUP4 SUB DUP2 PUSH1 0x0 DUP8 DUP1 EXTCODESIZE ISZERO DUP1 ISZERO PUSH2 0x353 JUMPI PUSH1 0x0 DUP1 REVERT JUMPDEST POP GAS CALL ISZERO DUP1 ISZERO PUSH2 0x367 JUMPI RETURNDATASIZE PUSH1 0x0 DUP1 RETURNDATACOPY RETURNDATASIZE PUSH1 0x0 REVERT JUMPDEST POP POP DUP3 MLOAD PUSH1 0x40 MLOAD SWAP1 SWAP3 POP DUP5 SWAP2 POP PUSH32 0x678B816BFD16FF03127C489332BEC2B8031C7A7491178F87E75ADDA9BCD9ACDF SWAP1 PUSH1 0x0 SWAP1 LOG3 POP PUSH2 0x3A5 PUSH1 0x1 PUSH1 0x2 SSTORE JUMP JUMPDEST POP JUMP JUMPDEST PUSH1 0x0 DUP3 DUP2 MSTORE PUSH1 0x4 PUSH1 0x20 DUP2 DUP2 MSTORE PUSH1 0x40 DUP1 DUP5 KECCAK256 PUSH1 0x1 PUSH1 0x1 PUSH1 0xA0 SHL SUB DUP7 DUP2 AND DUP7 MSTORE SWAP1 DUP4 MSTORE DUP2 DUP6 KECCAK256 DUP3 MLOAD PUSH1 0x60 DUP2 ADD DUP5 MSTORE DUP2 SLOAD DUP2 MSTORE PUSH1 0x1 DUP3 ADD SLOAD SWAP5 DUP2 ADD SWAP5 SWAP1 SWAP5 MSTORE PUSH1 0x2 ADD SLOAD DUP4 DUP4 ADD MSTORE SWAP1 MLOAD PUSH4 0xBD85B039 PUSH1 0xE0 SHL DUP2 MSTORE SWAP3 DUP4 ADD DUP7 SWAP1 MSTORE SWAP1 SWAP3 SWAP2 PUSH32 0x0 SWAP1 SWAP2 AND SWAP1 PUSH4 0xBD85B039 SWAP1 PUSH1 0x24 ADD PUSH1 0x20 PUSH1 0x40 MLOAD DUP1 DUP4 SUB DUP2 DUP7 GAS STATICCALL ISZERO DUP1 ISZERO PUSH2 0x44C JUMPI RETURNDATASIZE PUSH1 0x0 DUP1 RETURNDATACOPY RETURNDATASIZE PUSH1 0x0 REVERT JUMPDEST POP POP POP POP PUSH1 0x40 MLOAD RETURNDATASIZE PUSH1 0x1F NOT PUSH1 0x1F DUP3 ADD AND DUP3 ADD DUP1 PUSH1 0x40 MSTORE POP DUP2 ADD SWAP1 PUSH2 0x470 SWAP2 SWAP1 PUSH2 0x1537 JUMP JUMPDEST DUP3 MLOAD PUSH2 0x47B DUP7 PUSH2 0x6E7 JUMP JUMPDEST PUSH2 0x485 SWAP2 SWAP1 PUSH2 0x1566 JUMP JUMPDEST PUSH2 0x48F SWAP2 SWAP1 PUSH2 0x1593 JUMP JUMPDEST SWAP1 POP DUP1 PUSH1 0x0 SUB PUSH2 0x4B2 JUMPI PUSH1 0x40 MLOAD PUSH4 0x78EB9E7 PUSH1 0xE3 SHL DUP2 MSTORE PUSH1 0x4 ADD PUSH1 0x40 MLOAD DUP1 SWAP2 SUB SWAP1 REVERT JUMPDEST PUSH1 0x0 PUSH1 0x64 PUSH2 0x4E0 PUSH32 0x0 DUP5 PUSH2 0x1566 JUMP JUMPDEST PUSH2 0x4EA SWAP2 SWAP1 PUSH2 0x1593 JUMP JUMPDEST SWAP1 POP DUP3 PUSH1 0x40 ADD MLOAD DUP2 LT ISZERO PUSH2 0x529 JUMPI PUSH1 0x0 DUP6 DUP2 MSTORE PUSH1 0x4 PUSH1 0x20 SWAP1 DUP2 MSTORE PUSH1 0x40 DUP1 DUP4 KECCAK256 PUSH1 0x1 PUSH1 0x1 PUSH1 0xA0 SHL SUB DUP9 AND DUP5 MSTORE SWAP1 SWAP2 MSTORE DUP2 KECCAK256 DUP2 DUP2 SSTORE PUSH1 0x1 DUP2 ADD DUP3 SWAP1 SSTORE PUSH1 0x2 ADD SSTORE JUMPDEST POP POP POP POP POP JUMP JUMPDEST PUSH1 0x0 DUP1 PUSH1 0x0 DUP1 PUSH1 0x3 PUSH1 0x0 SWAP1 SLOAD SWAP1 PUSH2 0x100 EXP SWAP1 DIV PUSH1 0x1 PUSH1 0x1 PUSH1 0xA0 SHL SUB AND PUSH1 0x1 PUSH1 0x1 PUSH1 0xA0 SHL SUB AND PUSH4 0xFEAF968C PUSH1 0x40 MLOAD DUP2 PUSH4 0xFFFFFFFF AND PUSH1 0xE0 SHL DUP2 MSTORE PUSH1 0x4 ADD PUSH1 0xA0 PUSH1 0x40 MLOAD DUP1 DUP4 SUB DUP2 DUP7 GAS STATICCALL SWAP3 POP POP POP DUP1 ISZERO PUSH2 0x5A5 JUMPI POP PUSH1 0x40 DUP1 MLOAD PUSH1 0x1F RETURNDATASIZE SWAP1 DUP2 ADD PUSH1 0x1F NOT AND DUP3 ADD SWAP1 SWAP3 MSTORE PUSH2 0x5A2 SWAP2 DUP2 ADD SWAP1 PUSH2 0x15CC JUMP JUMPDEST PUSH1 0x1 JUMPDEST PUSH2 0x5C2 JUMPI PUSH1 0x40 MLOAD PUSH4 0xBC2332ED PUSH1 0xE0 SHL DUP2 MSTORE PUSH1 0x4 ADD PUSH1 0x40 MLOAD DUP1 SWAP2 SUB SWAP1 REVERT JUMPDEST POP SWAP3 SWAP6 POP SWAP1 SWAP4 POP SWAP1 SWAP2 POP POP DUP3 PUSH1 0x1 PUSH1 0x1 PUSH1 0x50 SHL SUB AND PUSH1 0x0 SUB PUSH2 0x5F7 JUMPI PUSH1 0x40 MLOAD PUSH4 0xBFBE031F PUSH1 0xE0 SHL DUP2 MSTORE PUSH1 0x4 ADD PUSH1 0x40 MLOAD DUP1 SWAP2 SUB SWAP1 REVERT JUMPDEST PUSH1 0x3 SLOAD PUSH2 0x611 SWAP1 PUSH1 0x1 PUSH1 0xA0 SHL SWAP1 DIV PUSH4 0xFFFFFFFF AND TIMESTAMP PUSH2 0x161C JUMP JUMPDEST DUP2 LT ISZERO PUSH2 0x631 JUMPI PUSH1 0x40 MLOAD PUSH4 0x1087E109 PUSH1 0xE0 SHL DUP2 MSTORE PUSH1 0x4 ADD PUSH1 0x40 MLOAD DUP1 SWAP2 SUB SWAP1 REVERT JUMPDEST POP SWAP3 SWAP2 POP POP JUMP JUMPDEST PUSH1 0x1 SLOAD PUSH1 0x1 PUSH1 0x1 PUSH1 0xA0 SHL SUB AND CALLER EQ PUSH2 0x690 JUMPI PUSH1 0x40 MLOAD PUSH3 0x461BCD PUSH1 0xE5 SHL DUP2 MSTORE PUSH1 0x20 PUSH1 0x4 DUP3 ADD MSTORE PUSH1 0x16 PUSH1 0x24 DUP3 ADD MSTORE PUSH22 0x26BAB9BA10313290383937B837B9B2B21037BBB732B9 PUSH1 0x51 SHL PUSH1 0x44 DUP3 ADD MSTORE PUSH1 0x64 ADD JUMPDEST PUSH1 0x40 MLOAD DUP1 SWAP2 SUB SWAP1 REVERT JUMPDEST PUSH1 0x0 DUP1 SLOAD CALLER PUSH1 0x1 PUSH1 0x1 PUSH1 0xA0 SHL SUB NOT DUP1 DUP4 AND DUP3 OR DUP5 SSTORE PUSH1 0x1 DUP1 SLOAD SWAP1 SWAP2 AND SWAP1 SSTORE PUSH1 0x40 MLOAD PUSH1 0x1 PUSH1 0x1 PUSH1 0xA0 SHL SUB SWAP1 SWAP3 AND SWAP3 SWAP1 SWAP2 DUP4 SWAP2 PUSH32 0x8BE0079C531659141344CD1FD0A4F28419497F9722A3DAAFE3B4186F6B6457E0 SWAP2 LOG3 POP JUMP JUMPDEST PUSH1 0x40 MLOAD PUSH4 0x1E1DA5D PUSH1 0xE7 SHL DUP2 MSTORE PUSH1 0x4 DUP2 ADD DUP3 SWAP1 MSTORE PUSH1 0x0 SWAP1 DUP2 SWAP1 PUSH1 0x1 PUSH1 0x1 PUSH1 0xA0 SHL SUB PUSH32 0x0 AND SWAP1 PUSH4 0xF0ED2E80 SWAP1 PUSH1 0x24 ADD PUSH1 0x60 PUSH1 0x40 MLOAD DUP1 DUP4 SUB DUP2 DUP7 GAS STATICCALL ISZERO DUP1 ISZERO PUSH2 0x751 JUMPI RETURNDATASIZE PUSH1 0x0 DUP1 RETURNDATACOPY RETURNDATASIZE PUSH1 0x0 REVERT JUMPDEST POP POP POP POP PUSH1 0x40 MLOAD RETURNDATASIZE PUSH1 0x1F NOT PUSH1 0x1F DUP3 ADD AND DUP3 ADD DUP1 PUSH1 0x40 MSTORE POP DUP2 ADD SWAP1 PUSH2 0x775 SWAP2 SWAP1 PUSH2 0x162F JUMP JUMPDEST SWAP1 POP PUSH1 0x0 PUSH32 0x0 PUSH2 0x7E4 PUSH32 0x0 PUSH32 0x0 PUSH2 0x169B JUMP JUMPDEST PUSH2 0x7EE SWAP2 SWAP1 PUSH2 0x169B JUMP JUMPDEST PUSH1 0x40 DUP4 ADD MLOAD PUSH2 0x826 SWAP1 PUSH1 0x1 PUSH1 0x1 PUSH1 0x50 SHL SUB AND PUSH32 0x0 PUSH2 0x1566 JUMP JUMPDEST PUSH1 0x20 DUP5 ADD MLOAD PUSH2 0x85E SWAP1 PUSH1 0x1 PUSH1 0x1 PUSH1 0x50 SHL SUB AND PUSH32 0x0 PUSH2 0x1566 JUMP JUMPDEST DUP5 MLOAD PUSH2 0x893 SWAP1 PUSH1 0x1 PUSH1 0x1 PUSH1 0x50 SHL SUB AND PUSH32 0x0 PUSH2 0x1566 JUMP JUMPDEST PUSH2 0x89D SWAP2 SWAP1 PUSH2 0x169B JUMP JUMPDEST PUSH2 0x8A7 SWAP2 SWAP1 PUSH2 0x169B JUMP JUMPDEST PUSH2 0x8B1 SWAP2 SWAP1 PUSH2 0x1593 JUMP JUMPDEST SWAP1 POP PUSH1 0x0 PUSH2 0x8BD PUSH2 0x530 JUMP JUMPDEST SWAP1 POP PUSH1 0x0 PUSH1 0x3 PUSH1 0x0 SWAP1 SLOAD SWAP1 PUSH2 0x100 EXP SWAP1 DIV PUSH1 0x1 PUSH1 0x1 PUSH1 0xA0 SHL SUB AND PUSH1 0x1 PUSH1 0x1 PUSH1 0xA0 SHL SUB AND PUSH4 0x313CE567 PUSH1 0x40 MLOAD DUP2 PUSH4 0xFFFFFFFF AND PUSH1 0xE0 SHL DUP2 MSTORE PUSH1 0x4 ADD PUSH1 0x20 PUSH1 0x40 MLOAD DUP1 DUP4 SUB DUP2 DUP7 GAS STATICCALL ISZERO DUP1 ISZERO PUSH2 0x914 JUMPI RETURNDATASIZE PUSH1 0x0 DUP1 RETURNDATACOPY RETURNDATASIZE PUSH1 0x0 REVERT JUMPDEST POP POP POP POP PUSH1 0x40 MLOAD RETURNDATASIZE PUSH1 0x1F NOT PUSH1 0x1F DUP3 ADD AND DUP3 ADD DUP1 PUSH1 0x40 MSTORE POP DUP2 ADD SWAP1 PUSH2 0x938 SWAP2 SWAP1 PUSH2 0x16AE JUMP JUMPDEST PUSH1 0xFF AND SWAP1 POP PUSH1 0x6 PUSH1 0x0 PUSH2 0x969 PUSH2 0x94E DUP6 DUP8 PUSH2 0x1566 JUMP JUMPDEST PUSH2 0x959 DUP5 PUSH1 0xA PUSH2 0x17B5 JUMP JUMPDEST PUSH2 0x964 DUP7 PUSH1 0xA PUSH2 0x17B5 JUMP JUMPDEST PUSH2 0xE3B JUMP JUMPDEST SWAP9 SWAP8 POP POP POP POP POP POP POP POP JUMP JUMPDEST PUSH2 0x97D PUSH2 0xF00 JUMP JUMPDEST PUSH1 0x3 DUP1 SLOAD PUSH4 0xFFFFFFFF SWAP1 SWAP3 AND PUSH1 0x1 PUSH1 0xA0 SHL MUL PUSH1 0x1 PUSH1 0x1 PUSH1 0xC0 SHL SUB NOT SWAP1 SWAP3 AND PUSH1 0x1 PUSH1 0x1 PUSH1 0xA0 SHL SUB SWAP1 SWAP4 AND SWAP3 SWAP1 SWAP3 OR OR SWAP1 SSTORE JUMP JUMPDEST PUSH1 0x0 CALLER PUSH1 0x1 PUSH1 0x1 PUSH1 0xA0 SHL SUB PUSH32 0x0 AND EQ PUSH2 0x9FA JUMPI PUSH1 0x40 MLOAD PUSH4 0x4F2A2FB5 PUSH1 0xE1 SHL DUP2 MSTORE PUSH1 0x4 ADD PUSH1 0x40 MLOAD DUP1 SWAP2 SUB SWAP1 REVERT JUMPDEST POP PUSH4 0xBC197C81 PUSH1 0xE0 SHL SWAP9 SWAP8 POP POP POP POP POP POP POP POP JUMP JUMPDEST PUSH1 0x0 PUSH2 0xA19 PUSH2 0xDA6 JUMP JUMPDEST CALLER PUSH1 0x1 PUSH1 0x1 PUSH1 0xA0 SHL SUB PUSH32 0x0 AND EQ PUSH2 0xA62 JUMPI PUSH1 0x40 MLOAD PUSH4 0x4F2A2FB5 PUSH1 0xE1 SHL DUP2 MSTORE PUSH1 0x4 ADD PUSH1 0x40 MLOAD DUP1 SWAP2 SUB SWAP1 REVERT JUMPDEST POP PUSH4 0xF23A6E61 PUSH1 0xE0 SHL PUSH2 0xA75 PUSH1 0x1 PUSH1 0x2 SSTORE JUMP JUMPDEST SWAP7 SWAP6 POP POP POP POP POP POP JUMP JUMPDEST PUSH2 0xA87 PUSH2 0xF00 JUMP JUMPDEST PUSH2 0x3A5 DUP2 PUSH2 0xF55 JUMP JUMPDEST PUSH2 0xA98 PUSH2 0xDA6 JUMP JUMPDEST PUSH1 0x0 DUP6 DUP2 MSTORE PUSH1 0x4 PUSH1 0x20 SWAP1 DUP2 MSTORE PUSH1 0x40 DUP1 DUP4 KECCAK256 CALLER DUP5 MSTORE SWAP1 SWAP2 MSTORE SWAP1 KECCAK256 PUSH1 0x1 ADD SLOAD ISZERO PUSH2 0xADC JUMPI PUSH1 0x40 MLOAD PUSH4 0x8E99BF5 PUSH1 0xE1 SHL DUP2 MSTORE CALLER PUSH1 0x4 DUP3 ADD MSTORE PUSH1 0x24 DUP2 ADD DUP7 SWAP1 MSTORE PUSH1 0x44 ADD PUSH2 0x687 JUMP JUMPDEST PUSH1 0x40 MLOAD PUSH4 0xBD85B039 PUSH1 0xE0 SHL DUP2 MSTORE PUSH1 0x4 DUP2 ADD DUP7 SWAP1 MSTORE PUSH1 0x0 SWAP1 PUSH32 0x0 PUSH1 0x1 PUSH1 0x1 PUSH1 0xA0 SHL SUB AND SWAP1 PUSH4 0xBD85B039 SWAP1 PUSH1 0x24 ADD PUSH1 0x20 PUSH1 0x40 MLOAD DUP1 DUP4 SUB DUP2 DUP7 GAS STATICCALL ISZERO DUP1 ISZERO PUSH2 0xB44 JUMPI RETURNDATASIZE PUSH1 0x0 DUP1 RETURNDATACOPY RETURNDATASIZE PUSH1 0x0 REVERT JUMPDEST POP POP POP POP PUSH1 0x40 MLOAD RETURNDATASIZE PUSH1 0x1F NOT PUSH1 0x1F DUP3 ADD AND DUP3 ADD DUP1 PUSH1 0x40 MSTORE POP DUP2 ADD SWAP1 PUSH2 0xB68 SWAP2 SWAP1 PUSH2 0x1537 JUMP JUMPDEST DUP6 PUSH2 0xB72 DUP9 PUSH2 0x6E7 JUMP JUMPDEST PUSH2 0xB7C SWAP2 SWAP1 PUSH2 0x1566 JUMP JUMPDEST PUSH2 0xB86 SWAP2 SWAP1 PUSH2 0x1593 JUMP JUMPDEST SWAP1 POP DUP1 PUSH1 0x0 SUB PUSH2 0xBA9 JUMPI PUSH1 0x40 MLOAD PUSH4 0x78EB9E7 PUSH1 0xE3 SHL DUP2 MSTORE PUSH1 0x4 ADD PUSH1 0x40 MLOAD DUP1 SWAP2 SUB SWAP1 REVERT JUMPDEST PUSH1 0x0 PUSH1 0x64 PUSH2 0xBD7 PUSH32 0x0 DUP5 PUSH2 0x1566 JUMP JUMPDEST PUSH2 0xBE1 SWAP2 SWAP1 PUSH2 0x1593 JUMP JUMPDEST SWAP1 POP DUP4 DUP2 LT ISZERO PUSH2 0xC04 JUMPI PUSH1 0x40 MLOAD PUSH4 0x339454FB PUSH1 0xE1 SHL DUP2 MSTORE PUSH1 0x4 ADD PUSH1 0x40 MLOAD DUP1 SWAP2 SUB SWAP1 REVERT JUMPDEST PUSH1 0x0 PUSH1 0x64 PUSH2 0xC32 PUSH32 0x0 DUP6 PUSH2 0x1566 JUMP JUMPDEST PUSH2 0xC3C SWAP2 SWAP1 PUSH2 0x1593 JUMP JUMPDEST SWAP1 POP DUP4 DUP2 GT ISZERO PUSH2 0xC5F JUMPI PUSH1 0x40 MLOAD PUSH4 0x339454FB PUSH1 0xE1 SHL DUP2 MSTORE PUSH1 0x4 ADD PUSH1 0x40 MLOAD DUP1 SWAP2 SUB SWAP1 REVERT JUMPDEST PUSH1 0x40 MLOAD PUSH4 0x79212195 PUSH1 0xE1 SHL DUP2 MSTORE PUSH1 0x1 PUSH1 0x1 PUSH1 0xA0 SHL SUB PUSH32 0x0 AND SWAP1 PUSH4 0xF242432A SWAP1 PUSH2 0xCB3 SWAP1 CALLER SWAP1 ADDRESS SWAP1 DUP14 SWAP1 DUP14 SWAP1 DUP14 SWAP1 PUSH1 0x4 ADD PUSH2 0x17E5 JUMP JUMPDEST PUSH1 0x0 PUSH1 0x40 MLOAD DUP1 DUP4 SUB DUP2 PUSH1 0x0 DUP8 DUP1 EXTCODESIZE ISZERO DUP1 ISZERO PUSH2 0xCCD JUMPI PUSH1 0x0 DUP1 REVERT JUMPDEST POP GAS CALL ISZERO DUP1 ISZERO PUSH2 0xCE1 JUMPI RETURNDATASIZE PUSH1 0x0 DUP1 RETURNDATACOPY RETURNDATASIZE PUSH1 0x0 REVERT JUMPDEST POP POP PUSH1 0x40 DUP1 MLOAD PUSH1 0x60 DUP2 ADD DUP3 MSTORE DUP11 DUP2 MSTORE PUSH1 0x20 DUP1 DUP3 ADD DUP8 DUP2 MSTORE DUP3 DUP5 ADD DUP8 DUP2 MSTORE PUSH1 0x0 DUP16 DUP2 MSTORE PUSH1 0x4 DUP5 MSTORE DUP6 DUP2 KECCAK256 CALLER DUP1 DUP4 MSTORE SWAP5 MSTORE SWAP5 SWAP1 SWAP5 KECCAK256 SWAP3 MLOAD DUP4 SSTORE MLOAD PUSH1 0x1 DUP4 ADD SSTORE SWAP2 MLOAD PUSH1 0x2 SWAP1 SWAP2 ADD SSTORE PUSH2 0xD5D SWAP3 POP PUSH32 0x0 PUSH1 0x1 PUSH1 0x1 PUSH1 0xA0 SHL SUB AND SWAP2 POP DUP5 PUSH2 0xFFE JUMP JUMPDEST DUP1 DUP3 DUP10 PUSH32 0xFC2BAA24CBBF617BFA430E509FA2184B87665B3272DB852E583B677125DFC3CB DUP11 PUSH1 0x40 MLOAD PUSH2 0xD91 SWAP2 DUP2 MSTORE PUSH1 0x20 ADD SWAP1 JUMP JUMPDEST PUSH1 0x40 MLOAD DUP1 SWAP2 SUB SWAP1 LOG4 POP POP POP PUSH2 0x529 PUSH1 0x1 PUSH1 0x2 SSTORE JUMP JUMPDEST PUSH1 0x2 DUP1 SLOAD SUB PUSH2 0xDC8 JUMPI PUSH1 0x40 MLOAD PUSH4 0x3EE5AEB5 PUSH1 0xE0 SHL DUP2 MSTORE PUSH1 0x4 ADD PUSH1 0x40 MLOAD DUP1 SWAP2 SUB SWAP1 REVERT JUMPDEST PUSH1 0x2 DUP1 SSTORE JUMP JUMPDEST PUSH1 0x40 MLOAD PUSH1 0x1 PUSH1 0x1 PUSH1 0xA0 SHL SUB DUP5 DUP2 AND PUSH1 0x24 DUP4 ADD MSTORE DUP4 DUP2 AND PUSH1 0x44 DUP4 ADD MSTORE PUSH1 0x64 DUP3 ADD DUP4 SWAP1 MSTORE PUSH2 0xE35 SWAP2 DUP7 SWAP2 DUP3 AND SWAP1 PUSH4 0x23B872DD SWAP1 PUSH1 0x84 ADD JUMPDEST PUSH1 0x40 MLOAD PUSH1 0x20 DUP2 DUP4 SUB SUB DUP2 MSTORE SWAP1 PUSH1 0x40 MSTORE SWAP2 POP PUSH1 0xE0 SHL PUSH1 0x20 DUP3 ADD DUP1 MLOAD PUSH1 0x1 PUSH1 0x1 PUSH1 0xE0 SHL SUB DUP4 DUP2 DUP4 AND OR DUP4 MSTORE POP POP POP POP PUSH2 0x1034 JUMP JUMPDEST POP POP POP POP JUMP JUMPDEST PUSH1 0x0 DUP4 DUP4 MUL DUP2 PUSH1 0x0 NOT DUP6 DUP8 MULMOD DUP3 DUP2 LT DUP4 DUP3 SUB SUB SWAP2 POP POP DUP1 PUSH1 0x0 SUB PUSH2 0xE72 JUMPI DUP4 DUP3 DUP2 PUSH2 0xE68 JUMPI PUSH2 0xE68 PUSH2 0x157D JUMP JUMPDEST DIV SWAP3 POP POP POP PUSH2 0xEF9 JUMP JUMPDEST DUP1 DUP5 GT PUSH2 0xE92 JUMPI PUSH1 0x40 MLOAD PUSH4 0x227BC153 PUSH1 0xE0 SHL DUP2 MSTORE PUSH1 0x4 ADD PUSH1 0x40 MLOAD DUP1 SWAP2 SUB SWAP1 REVERT JUMPDEST PUSH1 0x0 DUP5 DUP7 DUP9 MULMOD PUSH1 0x0 DUP7 DUP2 SUB DUP8 AND SWAP7 DUP8 SWAP1 DIV SWAP7 PUSH1 0x2 PUSH1 0x3 DUP10 MUL DUP2 XOR DUP1 DUP11 MUL DUP3 SUB MUL DUP1 DUP11 MUL DUP3 SUB MUL DUP1 DUP11 MUL DUP3 SUB MUL DUP1 DUP11 MUL DUP3 SUB MUL DUP1 DUP11 MUL DUP3 SUB MUL DUP1 DUP11 MUL SWAP1 SWAP2 SUB MUL SWAP2 DUP2 SWAP1 SUB DUP2 SWAP1 DIV PUSH1 0x1 ADD DUP7 DUP5 GT SWAP1 SWAP6 SUB SWAP5 SWAP1 SWAP5 MUL SWAP2 SWAP1 SWAP5 SUB SWAP3 SWAP1 SWAP3 DIV SWAP2 SWAP1 SWAP2 OR SWAP2 SWAP1 SWAP2 MUL SWAP2 POP POP JUMPDEST SWAP4 SWAP3 POP POP POP JUMP JUMPDEST PUSH1 0x0 SLOAD PUSH1 0x1 PUSH1 0x1 PUSH1 0xA0 SHL SUB AND CALLER EQ PUSH2 0xF53 JUMPI PUSH1 0x40 MLOAD PUSH3 0x461BCD PUSH1 0xE5 SHL DUP2 MSTORE PUSH1 0x20 PUSH1 0x4 DUP3 ADD MSTORE PUSH1 0x16 PUSH1 0x24 DUP3 ADD MSTORE PUSH22 0x27B7363C9031B0B63630B1363290313C9037BBB732B9 PUSH1 0x51 SHL PUSH1 0x44 DUP3 ADD MSTORE PUSH1 0x64 ADD PUSH2 0x687 JUMP JUMPDEST JUMP JUMPDEST CALLER PUSH1 0x1 PUSH1 0x1 PUSH1 0xA0 SHL SUB DUP3 AND SUB PUSH2 0xFAD JUMPI PUSH1 0x40 MLOAD PUSH3 0x461BCD PUSH1 0xE5 SHL DUP2 MSTORE PUSH1 0x20 PUSH1 0x4 DUP3 ADD MSTORE PUSH1 0x17 PUSH1 0x24 DUP3 ADD MSTORE PUSH32 0x43616E6E6F74207472616E7366657220746F2073656C66000000000000000000 PUSH1 0x44 DUP3 ADD MSTORE PUSH1 0x64 ADD PUSH2 0x687 JUMP JUMPDEST PUSH1 0x1 DUP1 SLOAD PUSH1 0x1 PUSH1 0x1 PUSH1 0xA0 SHL SUB NOT AND PUSH1 0x1 PUSH1 0x1 PUSH1 0xA0 SHL SUB DUP4 DUP2 AND SWAP2 DUP3 OR SWAP1 SWAP3 SSTORE PUSH1 0x0 DUP1 SLOAD PUSH1 0x40 MLOAD SWAP3 SWAP4 AND SWAP2 PUSH32 0xED8889F560326EB138920D842192F0EB3DD22B4F139C87A2C57538E05BAE1278 SWAP2 SWAP1 LOG3 POP JUMP JUMPDEST PUSH1 0x40 MLOAD PUSH1 0x1 PUSH1 0x1 PUSH1 0xA0 SHL SUB DUP4 DUP2 AND PUSH1 0x24 DUP4 ADD MSTORE PUSH1 0x44 DUP3 ADD DUP4 SWAP1 MSTORE PUSH2 0x102F SWAP2 DUP6 SWAP2 DUP3 AND SWAP1 PUSH4 0xA9059CBB SWAP1 PUSH1 0x64 ADD PUSH2 0xE03 JUMP JUMPDEST POP POP POP JUMP JUMPDEST PUSH1 0x0 PUSH2 0x1049 PUSH1 0x1 PUSH1 0x1 PUSH1 0xA0 SHL SUB DUP5 AND DUP4 PUSH2 0x1097 JUMP JUMPDEST SWAP1 POP DUP1 MLOAD PUSH1 0x0 EQ ISZERO DUP1 ISZERO PUSH2 0x106E JUMPI POP DUP1 DUP1 PUSH1 0x20 ADD SWAP1 MLOAD DUP2 ADD SWAP1 PUSH2 0x106C SWAP2 SWAP1 PUSH2 0x1840 JUMP JUMPDEST ISZERO JUMPDEST ISZERO PUSH2 0x102F JUMPI PUSH1 0x40 MLOAD PUSH4 0x5274AFE7 PUSH1 0xE0 SHL DUP2 MSTORE PUSH1 0x1 PUSH1 0x1 PUSH1 0xA0 SHL SUB DUP5 AND PUSH1 0x4 DUP3 ADD MSTORE PUSH1 0x24 ADD PUSH2 0x687 JUMP JUMPDEST PUSH1 0x60 PUSH2 0xEF9 DUP4 DUP4 PUSH1 0x0 DUP5 PUSH1 0x0 DUP1 DUP6 PUSH1 0x1 PUSH1 0x1 PUSH1 0xA0 SHL SUB AND DUP5 DUP7 PUSH1 0x40 MLOAD PUSH2 0x10BD SWAP2 SWAP1 PUSH2 0x1862 JUMP JUMPDEST PUSH1 0x0 PUSH1 0x40 MLOAD DUP1 DUP4 SUB DUP2 DUP6 DUP8 GAS CALL SWAP3 POP POP POP RETURNDATASIZE DUP1 PUSH1 0x0 DUP2 EQ PUSH2 0x10FA JUMPI PUSH1 0x40 MLOAD SWAP2 POP PUSH1 0x1F NOT PUSH1 0x3F RETURNDATASIZE ADD AND DUP3 ADD PUSH1 0x40 MSTORE RETURNDATASIZE DUP3 MSTORE RETURNDATASIZE PUSH1 0x0 PUSH1 0x20 DUP5 ADD RETURNDATACOPY PUSH2 0x10FF JUMP JUMPDEST PUSH1 0x60 SWAP2 POP JUMPDEST POP SWAP2 POP SWAP2 POP PUSH2 0xA75 DUP7 DUP4 DUP4 PUSH1 0x60 DUP3 PUSH2 0x111F JUMPI PUSH2 0x111A DUP3 PUSH2 0x1166 JUMP JUMPDEST PUSH2 0xEF9 JUMP JUMPDEST DUP2 MLOAD ISZERO DUP1 ISZERO PUSH2 0x1136 JUMPI POP PUSH1 0x1 PUSH1 0x1 PUSH1 0xA0 SHL SUB DUP5 AND EXTCODESIZE ISZERO JUMPDEST ISZERO PUSH2 0x115F JUMPI PUSH1 0x40 MLOAD PUSH4 0x9996B315 PUSH1 0xE0 SHL DUP2 MSTORE PUSH1 0x1 PUSH1 0x1 PUSH1 0xA0 SHL SUB DUP6 AND PUSH1 0x4 DUP3 ADD MSTORE PUSH1 0x24 ADD PUSH2 0x687 JUMP JUMPDEST POP DUP1 PUSH2 0xEF9 JUMP JUMPDEST DUP1 MLOAD ISZERO PUSH2 0x1176 JUMPI DUP1 MLOAD DUP1 DUP3 PUSH1 0x20 ADD REVERT JUMPDEST PUSH1 0x40 MLOAD PUSH4 0xA12F521 PUSH1 0xE1 SHL DUP2 MSTORE PUSH1 0x4 ADD PUSH1 0x40 MLOAD DUP1 SWAP2 SUB SWAP1 REVERT JUMPDEST PUSH1 0x0 PUSH1 0x20 DUP3 DUP5 SUB SLT ISZERO PUSH2 0x11A1 JUMPI PUSH1 0x0 DUP1 REVERT JUMPDEST DUP2 CALLDATALOAD PUSH1 0x1 PUSH1 0x1 PUSH1 0xE0 SHL SUB NOT DUP2 AND DUP2 EQ PUSH2 0xEF9 JUMPI PUSH1 0x0 DUP1 REVERT JUMPDEST PUSH1 0x0 PUSH1 0x20 DUP3 DUP5 SUB SLT ISZERO PUSH2 0x11CB JUMPI PUSH1 0x0 DUP1 REVERT JUMPDEST POP CALLDATALOAD SWAP2 SWAP1 POP JUMP JUMPDEST DUP1 CALLDATALOAD PUSH1 0x1 PUSH1 0x1 PUSH1 0xA0 SHL SUB DUP2 AND DUP2 EQ PUSH2 0x11E9 JUMPI PUSH1 0x0 DUP1 REVERT JUMPDEST SWAP2 SWAP1 POP JUMP JUMPDEST PUSH1 0x0 DUP1 PUSH1 0x40 DUP4 DUP6 SUB SLT ISZERO PUSH2 0x1201 JUMPI PUSH1 0x0 DUP1 REVERT JUMPDEST DUP3 CALLDATALOAD SWAP2 POP PUSH2 0x1211 PUSH1 0x20 DUP5 ADD PUSH2 0x11D2 JUMP JUMPDEST SWAP1 POP SWAP3 POP SWAP3 SWAP1 POP JUMP JUMPDEST PUSH1 0x0 DUP1 PUSH1 0x40 DUP4 DUP6 SUB SLT ISZERO PUSH2 0x122D JUMPI PUSH1 0x0 DUP1 REVERT JUMPDEST PUSH2 0x1236 DUP4 PUSH2 0x11D2 JUMP JUMPDEST SWAP2 POP PUSH1 0x20 DUP4 ADD CALLDATALOAD PUSH4 0xFFFFFFFF DUP2 AND DUP2 EQ PUSH2 0x124F JUMPI PUSH1 0x0 DUP1 REVERT JUMPDEST DUP1 SWAP2 POP POP SWAP3 POP SWAP3 SWAP1 POP JUMP JUMPDEST PUSH1 0x0 DUP1 DUP4 PUSH1 0x1F DUP5 ADD SLT PUSH2 0x126C JUMPI PUSH1 0x0 DUP1 REVERT JUMPDEST POP DUP2 CALLDATALOAD PUSH8 0xFFFFFFFFFFFFFFFF DUP2 GT ISZERO PUSH2 0x1284 JUMPI PUSH1 0x0 DUP1 REVERT JUMPDEST PUSH1 0x20 DUP4 ADD SWAP2 POP DUP4 PUSH1 0x20 DUP3 PUSH1 0x5 SHL DUP6 ADD ADD GT ISZERO PUSH2 0x129F JUMPI PUSH1 0x0 DUP1 REVERT JUMPDEST SWAP3 POP SWAP3 SWAP1 POP JUMP JUMPDEST PUSH1 0x0 DUP1 DUP4 PUSH1 0x1F DUP5 ADD SLT PUSH2 0x12B8 JUMPI PUSH1 0x0 DUP1 REVERT JUMPDEST POP DUP2 CALLDATALOAD PUSH8 0xFFFFFFFFFFFFFFFF DUP2 GT ISZERO PUSH2 0x12D0 JUMPI PUSH1 0x0 DUP1 REVERT JUMPDEST PUSH1 0x20 DUP4 ADD SWAP2 POP DUP4 PUSH1 0x20 DUP3 DUP6 ADD ADD GT ISZERO PUSH2 0x129F JUMPI PUSH1 0x0 DUP1 REVERT JUMPDEST PUSH1 0x0 DUP1 PUSH1 0x0 DUP1 PUSH1 0x0 DUP1 PUSH1 0x0 DUP1 PUSH1 0xA0 DUP10 DUP12 SUB SLT ISZERO PUSH2 0x1304 JUMPI PUSH1 0x0 DUP1 REVERT JUMPDEST PUSH2 0x130D DUP10 PUSH2 0x11D2 JUMP JUMPDEST SWAP8 POP PUSH2 0x131B PUSH1 0x20 DUP11 ADD PUSH2 0x11D2 JUMP JUMPDEST SWAP7 POP PUSH1 0x40 DUP10 ADD CALLDATALOAD PUSH8 0xFFFFFFFFFFFFFFFF DUP1 DUP3 GT ISZERO PUSH2 0x1338 JUMPI PUSH1 0x0 DUP1 REVERT JUMPDEST PUSH2 0x1344 DUP13 DUP4 DUP14 ADD PUSH2 0x125A JUMP JUMPDEST SWAP1 SWAP9 POP SWAP7 POP PUSH1 0x60 DUP12 ADD CALLDATALOAD SWAP2 POP DUP1 DUP3 GT ISZERO PUSH2 0x135D JUMPI PUSH1 0x0 DUP1 REVERT JUMPDEST PUSH2 0x1369 DUP13 DUP4 DUP14 ADD PUSH2 0x125A JUMP JUMPDEST SWAP1 SWAP7 POP SWAP5 POP PUSH1 0x80 DUP12 ADD CALLDATALOAD SWAP2 POP DUP1 DUP3 GT ISZERO PUSH2 0x1382 JUMPI PUSH1 0x0 DUP1 REVERT JUMPDEST POP PUSH2 0x138F DUP12 DUP3 DUP13 ADD PUSH2 0x12A6 JUMP JUMPDEST SWAP10 SWAP13 SWAP9 SWAP12 POP SWAP7 SWAP10 POP SWAP5 SWAP8 SWAP4 SWAP7 SWAP3 SWAP6 SWAP5 POP POP POP JUMP JUMPDEST PUSH1 0x0 DUP1 PUSH1 0x0 DUP1 PUSH1 0x0 DUP1 PUSH1 0xA0 DUP8 DUP10 SUB SLT ISZERO PUSH2 0x13BC JUMPI PUSH1 0x0 DUP1 REVERT JUMPDEST PUSH2 0x13C5 DUP8 PUSH2 0x11D2 JUMP JUMPDEST SWAP6 POP PUSH2 0x13D3 PUSH1 0x20 DUP9 ADD PUSH2 0x11D2 JUMP JUMPDEST SWAP5 POP PUSH1 0x40 DUP8 ADD CALLDATALOAD SWAP4 POP PUSH1 0x60 DUP8 ADD CALLDATALOAD SWAP3 POP PUSH1 0x80 DUP8 ADD CALLDATALOAD PUSH8 0xFFFFFFFFFFFFFFFF DUP2 GT ISZERO PUSH2 0x13FD JUMPI PUSH1 0x0 DUP1 REVERT JUMPDEST PUSH2 0x1409 DUP10 DUP3 DUP11 ADD PUSH2 0x12A6 JUMP JUMPDEST SWAP8 SWAP11 SWAP7 SWAP10 POP SWAP5 SWAP8 POP SWAP3 SWAP6 SWAP4 SWAP5 SWAP3 POP POP POP JUMP JUMPDEST PUSH1 0x0 PUSH1 0x20 DUP3 DUP5 SUB SLT ISZERO PUSH2 0x142D JUMPI PUSH1 0x0 DUP1 REVERT JUMPDEST PUSH2 0xEF9 DUP3 PUSH2 0x11D2 JUMP JUMPDEST PUSH4 0x4E487B71 PUSH1 0xE0 SHL PUSH1 0x0 MSTORE PUSH1 0x41 PUSH1 0x4 MSTORE PUSH1 0x24 PUSH1 0x0 REVERT JUMPDEST PUSH1 0x40 MLOAD PUSH1 0x1F DUP3 ADD PUSH1 0x1F NOT AND DUP2 ADD PUSH8 0xFFFFFFFFFFFFFFFF DUP2 GT DUP3 DUP3 LT OR ISZERO PUSH2 0x1475 JUMPI PUSH2 0x1475 PUSH2 0x1436 JUMP JUMPDEST PUSH1 0x40 MSTORE SWAP2 SWAP1 POP JUMP JUMPDEST PUSH1 0x0 DUP1 PUSH1 0x0 DUP1 PUSH1 0x0 PUSH1 0xA0 DUP7 DUP9 SUB SLT ISZERO PUSH2 0x1495 JUMPI PUSH1 0x0 DUP1 REVERT JUMPDEST DUP6 CALLDATALOAD SWAP5 POP PUSH1 0x20 DUP1 DUP8 ADD CALLDATALOAD SWAP5 POP PUSH1 0x40 DUP8 ADD CALLDATALOAD PUSH8 0xFFFFFFFFFFFFFFFF DUP1 DUP3 GT ISZERO PUSH2 0x14BC JUMPI PUSH1 0x0 DUP1 REVERT JUMPDEST DUP2 DUP10 ADD SWAP2 POP DUP10 PUSH1 0x1F DUP4 ADD SLT PUSH2 0x14D0 JUMPI PUSH1 0x0 DUP1 REVERT JUMPDEST DUP2 CALLDATALOAD DUP2 DUP2 GT ISZERO PUSH2 0x14E2 JUMPI PUSH2 0x14E2 PUSH2 0x1436 JUMP JUMPDEST PUSH2 0x14F4 PUSH1 0x1F DUP3 ADD PUSH1 0x1F NOT AND DUP6 ADD PUSH2 0x144C JUMP JUMPDEST SWAP2 POP DUP1 DUP3 MSTORE DUP11 DUP5 DUP3 DUP6 ADD ADD GT ISZERO PUSH2 0x150A JUMPI PUSH1 0x0 DUP1 REVERT JUMPDEST DUP1 DUP5 DUP5 ADD DUP6 DUP5 ADD CALLDATACOPY PUSH1 0x0 SWAP1 DUP3 ADD SWAP1 SWAP4 ADD SWAP3 SWAP1 SWAP3 MSTORE POP SWAP5 SWAP8 SWAP4 SWAP7 POP SWAP4 SWAP5 PUSH1 0x60 DUP2 ADD CALLDATALOAD SWAP5 POP PUSH1 0x80 ADD CALLDATALOAD SWAP3 SWAP2 POP POP JUMP JUMPDEST PUSH1 0x0 PUSH1 0x20 DUP3 DUP5 SUB SLT ISZERO PUSH2 0x1549 JUMPI PUSH1 0x0 DUP1 REVERT JUMPDEST POP MLOAD SWAP2 SWAP1 POP JUMP JUMPDEST PUSH4 0x4E487B71 PUSH1 0xE0 SHL PUSH1 0x0 MSTORE PUSH1 0x11 PUSH1 0x4 MSTORE PUSH1 0x24 PUSH1 0x0 REVERT JUMPDEST DUP1 DUP3 MUL DUP2 ISZERO DUP3 DUP3 DIV DUP5 EQ OR PUSH2 0x1FE JUMPI PUSH2 0x1FE PUSH2 0x1550 JUMP JUMPDEST PUSH4 0x4E487B71 PUSH1 0xE0 SHL PUSH1 0x0 MSTORE PUSH1 0x12 PUSH1 0x4 MSTORE PUSH1 0x24 PUSH1 0x0 REVERT JUMPDEST PUSH1 0x0 DUP3 PUSH2 0x15B0 JUMPI PUSH4 0x4E487B71 PUSH1 0xE0 SHL PUSH1 0x0 MSTORE PUSH1 0x12 PUSH1 0x4 MSTORE PUSH1 0x24 PUSH1 0x0 REVERT JUMPDEST POP DIV SWAP1 JUMP JUMPDEST DUP1 MLOAD PUSH1 0x1 PUSH1 0x1 PUSH1 0x50 SHL SUB DUP2 AND DUP2 EQ PUSH2 0x11E9 JUMPI PUSH1 0x0 DUP1 REVERT JUMPDEST PUSH1 0x0 DUP1 PUSH1 0x0 DUP1 PUSH1 0x0 PUSH1 0xA0 DUP7 DUP9 SUB SLT ISZERO PUSH2 0x15E4 JUMPI PUSH1 0x0 DUP1 REVERT JUMPDEST PUSH2 0x15ED DUP7 PUSH2 0x15B5 JUMP JUMPDEST SWAP5 POP PUSH1 0x20 DUP7 ADD MLOAD SWAP4 POP PUSH1 0x40 DUP7 ADD MLOAD SWAP3 POP PUSH1 0x60 DUP7 ADD MLOAD SWAP2 POP PUSH2 0x1610 PUSH1 0x80 DUP8 ADD PUSH2 0x15B5 JUMP JUMPDEST SWAP1 POP SWAP3 SWAP6 POP SWAP3 SWAP6 SWAP1 SWAP4 POP JUMP JUMPDEST DUP2 DUP2 SUB DUP2 DUP2 GT ISZERO PUSH2 0x1FE JUMPI PUSH2 0x1FE PUSH2 0x1550 JUMP JUMPDEST PUSH1 0x0 PUSH1 0x60 DUP3 DUP5 SUB SLT ISZERO PUSH2 0x1641 JUMPI PUSH1 0x0 DUP1 REVERT JUMPDEST PUSH1 0x40 MLOAD PUSH1 0x60 DUP2 ADD DUP2 DUP2 LT PUSH8 0xFFFFFFFFFFFFFFFF DUP3 GT OR ISZERO PUSH2 0x1664 JUMPI PUSH2 0x1664 PUSH2 0x1436 JUMP JUMPDEST PUSH1 0x40 MSTORE PUSH2 0x1670 DUP4 PUSH2 0x15B5 JUMP JUMPDEST DUP2 MSTORE PUSH2 0x167E PUSH1 0x20 DUP5 ADD PUSH2 0x15B5 JUMP JUMPDEST PUSH1 0x20 DUP3 ADD MSTORE PUSH2 0x168F PUSH1 0x40 DUP5 ADD PUSH2 0x15B5 JUMP JUMPDEST PUSH1 0x40 DUP3 ADD MSTORE SWAP4 SWAP3 POP POP POP JUMP JUMPDEST DUP1 DUP3 ADD DUP1 DUP3 GT ISZERO PUSH2 0x1FE JUMPI PUSH2 0x1FE PUSH2 0x1550 JUMP JUMPDEST PUSH1 0x0 PUSH1 0x20 DUP3 DUP5 SUB SLT ISZERO PUSH2 0x16C0 JUMPI PUSH1 0x0 DUP1 REVERT JUMPDEST DUP2 MLOAD PUSH1 0xFF DUP2 AND DUP2 EQ PUSH2 0xEF9 JUMPI PUSH1 0x0 DUP1 REVERT JUMPDEST PUSH1 0x1 DUP2 DUP2 JUMPDEST DUP1 DUP6 GT ISZERO PUSH2 0x170C JUMPI DUP2 PUSH1 0x0 NOT DIV DUP3 GT ISZERO PUSH2 0x16F2 JUMPI PUSH2 0x16F2 PUSH2 0x1550 JUMP JUMPDEST DUP1 DUP6 AND ISZERO PUSH2 0x16FF JUMPI SWAP2 DUP2 MUL SWAP2 JUMPDEST SWAP4 DUP5 SHR SWAP4 SWAP1 DUP1 MUL SWAP1 PUSH2 0x16D6 JUMP JUMPDEST POP SWAP3 POP SWAP3 SWAP1 POP JUMP JUMPDEST PUSH1 0x0 DUP3 PUSH2 0x1723 JUMPI POP PUSH1 0x1 PUSH2 0x1FE JUMP JUMPDEST DUP2 PUSH2 0x1730 JUMPI POP PUSH1 0x0 PUSH2 0x1FE JUMP JUMPDEST DUP2 PUSH1 0x1 DUP2 EQ PUSH2 0x1746 JUMPI PUSH1 0x2 DUP2 EQ PUSH2 0x1750 JUMPI PUSH2 0x176C JUMP JUMPDEST PUSH1 0x1 SWAP2 POP POP PUSH2 0x1FE JUMP JUMPDEST PUSH1 0xFF DUP5 GT ISZERO PUSH2 0x1761 JUMPI PUSH2 0x1761 PUSH2 0x1550 JUMP JUMPDEST POP POP PUSH1 0x1 DUP3 SHL PUSH2 0x1FE JUMP JUMPDEST POP PUSH1 0x20 DUP4 LT PUSH2 0x133 DUP4 LT AND PUSH1 0x4E DUP5 LT PUSH1 0xB DUP5 LT AND OR ISZERO PUSH2 0x178F JUMPI POP DUP2 DUP2 EXP PUSH2 0x1FE JUMP JUMPDEST PUSH2 0x1799 DUP4 DUP4 PUSH2 0x16D1 JUMP JUMPDEST DUP1 PUSH1 0x0 NOT DIV DUP3 GT ISZERO PUSH2 0x17AD JUMPI PUSH2 0x17AD PUSH2 0x1550 JUMP JUMPDEST MUL SWAP4 SWAP3 POP POP POP JUMP JUMPDEST PUSH1 0x0 PUSH2 0xEF9 DUP4 DUP4 PUSH2 0x1714 JUMP JUMPDEST PUSH1 0x0 JUMPDEST DUP4 DUP2 LT ISZERO PUSH2 0x17DC JUMPI DUP2 DUP2 ADD MLOAD DUP4 DUP3 ADD MSTORE PUSH1 0x20 ADD PUSH2 0x17C4 JUMP JUMPDEST POP POP PUSH1 0x0 SWAP2 ADD MSTORE JUMP JUMPDEST PUSH1 0x0 PUSH1 0x1 DUP1 PUSH1 0xA0 SHL SUB DUP1 DUP9 AND DUP4 MSTORE DUP1 DUP8 AND PUSH1 0x20 DUP5 ADD MSTORE POP DUP5 PUSH1 0x40 DUP4 ADD MSTORE DUP4 PUSH1 0x60 DUP4 ADD MSTORE PUSH1 0xA0 PUSH1 0x80 DUP4 ADD MSTORE DUP3 MLOAD DUP1 PUSH1 0xA0 DUP5 ADD MSTORE PUSH2 0x1828 DUP2 PUSH1 0xC0 DUP6 ADD PUSH1 0x20 DUP8 ADD PUSH2 0x17C1 JUMP JUMPDEST PUSH1 0x1F ADD PUSH1 0x1F NOT AND SWAP2 SWAP1 SWAP2 ADD PUSH1 0xC0 ADD SWAP7 SWAP6 POP POP POP POP POP POP JUMP JUMPDEST PUSH1 0x0 PUSH1 0x20 DUP3 DUP5 SUB SLT ISZERO PUSH2 0x1852 JUMPI PUSH1 0x0 DUP1 REVERT JUMPDEST DUP2 MLOAD DUP1 ISZERO ISZERO DUP2 EQ PUSH2 0xEF9 JUMPI PUSH1 0x0 DUP1 REVERT JUMPDEST PUSH1 0x0 DUP3 MLOAD PUSH2 0x1874 DUP2 DUP5 PUSH1 0x20 DUP8 ADD PUSH2 0x17C1 JUMP JUMPDEST SWAP2 SWAP1 SWAP2 ADD SWAP3 SWAP2 POP POP JUMP INVALID LOG2 PUSH5 0x6970667358 0x22 SLT KECCAK256 0x2F 0xB3 PUSH1 0x81 DUP14 0xB3 0x2E SWAP14 MULMOD 0x2E DUP13 SWAP14 0xBA BYTE 0xC5 0xEB 0xFB MSTORE 0xEE 0xE8 PUSH10 0x5CA0B93019165F7AE7B5 0xC PUSH5 0x736F6C6343 STOP ADDMOD XOR STOP CALLER "
		},
		"gasEstimates": {
			"creation": {
				"codeDepositCost": "1264800",
				"executionCost": "infinite",
				"totalCost": "infinite"
			},
			"external": {
				"acceptOwnership()": "52388",
				"borrow(uint256,uint256,bytes,uint256,uint256)": "infinite",
				"getUsdcPriceInUsd()": "infinite",
				"getValuationInUsdc(uint256)": "infinite",
				"liquidate(uint256,address)": "infinite",
				"onERC1155BatchReceived(address,address,uint256[],uint256[],bytes)": "infinite",
				"onERC1155Received(address,address,uint256,uint256,bytes)": "infinite",
				"owner()": "2412",
				"repay(uint256)": "infinite",
				"setUsdcUsdPriceFeedDetails(address,uint32)": "26849",
				"supportsInterface(bytes4)": "427",
				"transferOwnership(address)": "30524"
			}
		},
		"methodIdentifiers": {
			"acceptOwnership()": "79ba5097",
			"borrow(uint256,uint256,bytes,uint256,uint256)": "ff60987c",
			"getUsdcPriceInUsd()": "7470215d",
			"getValuationInUsdc(uint256)": "8dd1ffa6",
			"liquidate(uint256,address)": "5fae8b3d",
			"onERC1155BatchReceived(address,address,uint256[],uint256[],bytes)": "bc197c81",
			"onERC1155Received(address,address,uint256,uint256,bytes)": "f23a6e61",
			"owner()": "8da5cb5b",
			"repay(uint256)": "371fd8e6",
			"setUsdcUsdPriceFeedDetails(address,uint32)": "9775fc3c",
			"supportsInterface(bytes4)": "01ffc9a7",
			"transferOwnership(address)": "f2fde38b"
		}
	},
	"abi": [
		{
			"inputs": [
				{
					"internalType": "address",
					"name": "realEstateTokenAddress",
					"type": "address"
				},
				{
					"internalType": "address",
					"name": "usdc",
					"type": "address"
				},
				{
					"internalType": "address",
					"name": "usdcUsdAggregatorAddress",
					"type": "address"
				},
				{
					"internalType": "uint32",
					"name": "usdcUsdFeedHeartbeat",
					"type": "uint32"
				}
			],
			"stateMutability": "nonpayable",
			"type": "constructor"
		},
		{
			"inputs": [
				{
					"internalType": "address",
					"name": "target",
					"type": "address"
				}
			],
			"name": "AddressEmptyCode",
			"type": "error"
		},
		{
			"inputs": [
				{
					"internalType": "address",
					"name": "account",
					"type": "address"
				}
			],
			"name": "AddressInsufficientBalance",
			"type": "error"
		},
		{
			"inputs": [
				{
					"internalType": "address",
					"name": "borrower",
					"type": "address"
				},
				{
					"internalType": "uint256",
					"name": "tokenId",
					"type": "uint256"
				}
			],
			"name": "AlreadyBorrowed",
			"type": "error"
		},
		{
			"inputs": [],
			"name": "FailedInnerCall",
			"type": "error"
		},
		{
			"inputs": [],
			"name": "InvalidRoundId",
			"type": "error"
		},
		{
			"inputs": [],
			"name": "InvalidValuation",
			"type": "error"
		},
		{
			"inputs": [],
			"name": "MathOverflowedMulDiv",
			"type": "error"
		},
		{
			"inputs": [],
			"name": "NothingToRepay",
			"type": "error"
		},
		{
			"inputs": [],
			"name": "OnlyRealEstateTokenSupported",
			"type": "error"
		},
		{
			"inputs": [],
			"name": "PriceFeedDdosed",
			"type": "error"
		},
		{
			"inputs": [],
			"name": "ReentrancyGuardReentrantCall",
			"type": "error"
		},
		{
			"inputs": [
				{
					"internalType": "address",
					"name": "token",
					"type": "address"
				}
			],
			"name": "SafeERC20FailedOperation",
			"type": "error"
		},
		{
			"inputs": [],
			"name": "SlippageToleranceExceeded",
			"type": "error"
		},
		{
			"inputs": [],
			"name": "StalePriceFeed",
			"type": "error"
		},
		{
			"anonymous": false,
			"inputs": [
				{
					"indexed": true,
					"internalType": "uint256",
					"name": "tokenId",
					"type": "uint256"
				},
				{
					"indexed": false,
					"internalType": "uint256",
					"name": "amount",
					"type": "uint256"
				},
				{
					"indexed": true,
					"internalType": "uint256",
					"name": "loanAmount",
					"type": "uint256"
				},
				{
					"indexed": true,
					"internalType": "uint256",
					"name": "liquidationThreshold",
					"type": "uint256"
				}
			],
			"name": "Borrow",
			"type": "event"
		},
		{
			"anonymous": false,
			"inputs": [
				{
					"indexed": true,
					"internalType": "uint256",
					"name": "tokenId",
					"type": "uint256"
				},
				{
					"indexed": true,
					"internalType": "uint256",
					"name": "amount",
					"type": "uint256"
				}
			],
			"name": "BorrowRepayed",
			"type": "event"
		},
		{
			"anonymous": false,
			"inputs": [
				{
					"indexed": true,
					"internalType": "uint256",
					"name": "tokenId",
					"type": "uint256"
				}
			],
			"name": "Liquidated",
			"type": "event"
		},
		{
			"anonymous": false,
			"inputs": [
				{
					"indexed": true,
					"internalType": "address",
					"name": "from",
					"type": "address"
				},
				{
					"indexed": true,
					"internalType": "address",
					"name": "to",
					"type": "address"
				}
			],
			"name": "OwnershipTransferRequested",
			"type": "event"
		},
		{
			"anonymous": false,
			"inputs": [
				{
					"indexed": true,
					"internalType": "address",
					"name": "from",
					"type": "address"
				},
				{
					"indexed": true,
					"internalType": "address",
					"name": "to",
					"type": "address"
				}
			],
			"name": "OwnershipTransferred",
			"type": "event"
		},
		{
			"inputs": [],
			"name": "acceptOwnership",
			"outputs": [],
			"stateMutability": "nonpayable",
			"type": "function"
		},
		{
			"inputs": [
				{
					"internalType": "uint256",
					"name": "tokenId",
					"type": "uint256"
				},
				{
					"internalType": "uint256",
					"name": "amount",
					"type": "uint256"
				},
				{
					"internalType": "bytes",
					"name": "data",
					"type": "bytes"
				},
				{
					"internalType": "uint256",
					"name": "minLoanAmount",
					"type": "uint256"
				},
				{
					"internalType": "uint256",
					"name": "maxLiquidationThreshold",
					"type": "uint256"
				}
			],
			"name": "borrow",
			"outputs": [],
			"stateMutability": "nonpayable",
			"type": "function"
		},
		{
			"inputs": [],
			"name": "getUsdcPriceInUsd",
			"outputs": [
				{
					"internalType": "uint256",
					"name": "",
					"type": "uint256"
				}
			],
			"stateMutability": "view",
			"type": "function"
		},
		{
			"inputs": [
				{
					"internalType": "uint256",
					"name": "tokenId",
					"type": "uint256"
				}
			],
			"name": "getValuationInUsdc",
			"outputs": [
				{
					"internalType": "uint256",
					"name": "",
					"type": "uint256"
				}
			],
			"stateMutability": "view",
			"type": "function"
		},
		{
			"inputs": [
				{
					"internalType": "uint256",
					"name": "tokenId",
					"type": "uint256"
				},
				{
					"internalType": "address",
					"name": "borrower",
					"type": "address"
				}
			],
			"name": "liquidate",
			"outputs": [],
			"stateMutability": "nonpayable",
			"type": "function"
		},
		{
			"inputs": [
				{
					"internalType": "address",
					"name": "",
					"type": "address"
				},
				{
					"internalType": "address",
					"name": "",
					"type": "address"
				},
				{
					"internalType": "uint256[]",
					"name": "",
					"type": "uint256[]"
				},
				{
					"internalType": "uint256[]",
					"name": "",
					"type": "uint256[]"
				},
				{
					"internalType": "bytes",
					"name": "",
					"type": "bytes"
				}
			],
			"name": "onERC1155BatchReceived",
			"outputs": [
				{
					"internalType": "bytes4",
					"name": "",
					"type": "bytes4"
				}
			],
			"stateMutability": "view",
			"type": "function"
		},
		{
			"inputs": [
				{
					"internalType": "address",
					"name": "",
					"type": "address"
				},
				{
					"internalType": "address",
					"name": "",
					"type": "address"
				},
				{
					"internalType": "uint256",
					"name": "",
					"type": "uint256"
				},
				{
					"internalType": "uint256",
					"name": "",
					"type": "uint256"
				},
				{
					"internalType": "bytes",
					"name": "",
					"type": "bytes"
				}
			],
			"name": "onERC1155Received",
			"outputs": [
				{
					"internalType": "bytes4",
					"name": "",
					"type": "bytes4"
				}
			],
			"stateMutability": "nonpayable",
			"type": "function"
		},
		{
			"inputs": [],
			"name": "owner",
			"outputs": [
				{
					"internalType": "address",
					"name": "",
					"type": "address"
				}
			],
			"stateMutability": "view",
			"type": "function"
		},
		{
			"inputs": [
				{
					"internalType": "uint256",
					"name": "tokenId",
					"type": "uint256"
				}
			],
			"name": "repay",
			"outputs": [],
			"stateMutability": "nonpayable",
			"type": "function"
		},
		{
			"inputs": [
				{
					"internalType": "address",
					"name": "usdcUsdAggregatorAddress",
					"type": "address"
				},
				{
					"internalType": "uint32",
					"name": "usdcUsdFeedHeartbeat",
					"type": "uint32"
				}
			],
			"name": "setUsdcUsdPriceFeedDetails",
			"outputs": [],
			"stateMutability": "nonpayable",
			"type": "function"
		},
		{
			"inputs": [
				{
					"internalType": "bytes4",
					"name": "interfaceId",
					"type": "bytes4"
				}
			],
			"name": "supportsInterface",
			"outputs": [
				{
					"internalType": "bool",
					"name": "",
					"type": "bool"
				}
			],
			"stateMutability": "view",
			"type": "function"
		},
		{
			"inputs": [
				{
					"internalType": "address",
					"name": "to",
					"type": "address"
				}
			],
			"name": "transferOwnership",
			"outputs": [],
			"stateMutability": "nonpayable",
			"type": "function"
		}
	]
}