{
	"data": {
		"bytecode": {
			"linkReferences": {},
			"object": "61050060405261043b60a0818152906200192b60c03960009062000024908262000276565b50604051806102e001604052806102b1815260200162001d666102b1913960019062000051908262000276565b503480156200005f57600080fd5b506040516200201738038062002017833981016040819052620000829162000342565b6001600160a01b0381166080523380600081620000e65760405162461bcd60e51b815260206004820152601860248201527f43616e6e6f7420736574206f776e657220746f207a65726f000000000000000060448201526064015b60405180910390fd5b600280546001600160a01b0319166001600160a01b03848116919091179091558116156200011957620001198162000123565b5050505062000374565b336001600160a01b038216036200017d5760405162461bcd60e51b815260206004820152601760248201527f43616e6e6f74207472616e7366657220746f2073656c660000000000000000006044820152606401620000dd565b600380546001600160a01b0319166001600160a01b03838116918217909255600254604051919216907fed8889f560326eb138920d842192f0eb3dd22b4f139c87a2c57538e05bae127890600090a350565b634e487b7160e01b600052604160045260246000fd5b600181811c90821680620001fa57607f821691505b6020821081036200021b57634e487b7160e01b600052602260045260246000fd5b50919050565b601f82111562000271576000816000526020600020601f850160051c810160208610156200024c5750805b601f850160051c820191505b818110156200026d5782815560010162000258565b5050505b505050565b81516001600160401b03811115620002925762000292620001cf565b620002aa81620002a38454620001e5565b8462000221565b602080601f831160018114620002e25760008415620002c95750858301515b600019600386901b1c1916600185901b1785556200026d565b600085815260208120601f198616915b828110156200031357888601518255948401946001909101908401620002f2565b5085821015620003325787850151600019600388901b60f8161c191681555b5050505050600190811b01905550565b6000602082840312156200035557600080fd5b81516001600160a01b03811681146200036d57600080fd5b9392505050565b60805161159462000397600039600081816101e7015261092401526115946000f3fe608060405234801561001057600080fd5b50600436106100935760003560e01c8063bd9a548b11610066578063bd9a548b146100f6578063d40d17bc1461010b578063e6b46ff51461011e578063f0ed2e8014610126578063f2fde38b146101c957600080fd5b80630ca761751461009857806379ba5097146100ad5780638da5cb5b146100b5578063a843a0ab146100d5575b600080fd5b6100ab6100a63660046110e3565b6101dc565b005b6100ab610260565b6002546040516001600160a01b0390911681526020015b60405180910390f35b6100e86100e336600461114f565b610313565b6040519081526020016100cc565b6100fe610481565b6040516100cc9190611230565b6100ab610119366004611243565b61050f565b6100fe610539565b61019461013436600461126c565b6040805160608082018352600080835260208084018290529284018190529384526005825292829020825193840183525469ffffffffffffffffffff8082168552600160501b8204811692850192909252600160a01b9004169082015290565b60408051825169ffffffffffffffffffff908116825260208085015182169083015292820151909216908201526060016100cc565b6100ab6101d7366004611243565b610546565b336001600160a01b037f000000000000000000000000000000000000000000000000000000000000000016146102255760405163c6829f8360e01b815260040160405180910390fd5b61023083838361055a565b60405183907f85e1543bf2f84fe80c6badbce3648c8539ad1df4d2b3d822938ca0538be727e690600090a2505050565b6003546001600160a01b031633146102b85760405162461bcd60e51b815260206004820152601660248201527526bab9ba10313290383937b837b9b2b21037bbb732b960511b60448201526064015b60405180910390fd5b600280546001600160a01b0319808216339081179093556003805490911690556040516001600160a01b03909116919082907f8be0079c531659141344cd1fd0a4f28419497f9722a3daafe3b4186f6b6457e090600090a350565b6004546000906001600160a01b0316331480159061033c57506002546001600160a01b03163314155b1561035a576040516302dc7d2f60e21b815260040160405180910390fd5b61039b6040805160e0810190915280600081526020016000815260200160008152602001606081526020016060815260200160608152602001606081525090565b61040b306001600160a01b031663bd9a548b6040518163ffffffff1660e01b8152600401600060405180830381865afa1580156103dc573d6000803e3d6000fd5b505050506040513d6000823e601f3d908101601f191682016040526104049190810190611285565b829061061c565b604080516001808252818301909252600091816020015b6060815260200190600190039081610422579050509050868160008151811061044d5761044d6112fb565b6020908102919091010152610462828261062d565b61047661046e83610657565b87878761091f565b979650505050505050565b6001805461048e90611311565b80601f01602080910402602001604051908101604052809291908181526020018280546104ba90611311565b80156105075780601f106104dc57610100808354040283529160200191610507565b820191906000526020600020905b8154815290600101906020018083116104ea57829003601f168201915b505050505081565b6105176109f1565b600480546001600160a01b0319166001600160a01b0392909216919091179055565b6000805461048e90611311565b61054e6109f1565b61055781610a46565b50565b80511561057b578060405162461bcd60e51b81526004016102af9190611230565b60008060008085806020019051810190610595919061134b565b6040805160608101825269ffffffffffffffffffff9485168152928416602080850191825292851684830190815260009687526005909352942091518254945191518416600160a01b0269ffffffffffffffffffff60a01b19928516600160501b026001600160a01b03199096169190941617939093179290921617905550505050505050565b6106298260008084610af0565b5050565b805160000361064f5760405163fe936cb760e01b815260040160405180910390fd5b60a090910152565b60606000610666610100610b6e565b905061069f6040518060400160405280600c81526020016b31b7b232a637b1b0ba34b7b760a11b81525082610b8f90919063ffffffff16565b82516106bd9060028111156106b6576106b6611381565b8290610bad565b6040805180820190915260088152676c616e677561676560c01b60208201526106e7908290610b8f565b60408301516106fe9080156106b6576106b6611381565b604080518082019091526006815265736f7572636560d01b6020820152610726908290610b8f565b6060830151610736908290610b8f565b60a083015151156107c2576040805180820190915260048152636172677360e01b6020820152610767908290610b8f565b61077081610be6565b60005b8360a00151518110156107b8576107b08460a001518281518110610799576107996112fb565b602002602001015183610b8f90919063ffffffff16565b600101610773565b506107c281610c0a565b60808301515115610886576000836020015160028111156107e5576107e5611381565b036108035760405163a80d31f760e01b815260040160405180910390fd5b60408051808201909152600f81526e39b2b1b932ba39a637b1b0ba34b7b760891b6020820152610834908290610b8f565b61084d836020015160028111156106b6576106b6611381565b6040805180820190915260078152667365637265747360c81b6020820152610876908290610b8f565b6080830151610886908290610c28565b60c083015151156109175760408051808201909152600981526862797465734172677360b81b60208201526108bc908290610b8f565b6108c581610be6565b60005b8360c001515181101561090d576109058460c0015182815181106108ee576108ee6112fb565b602002602001015183610c2890919063ffffffff16565b6001016108c8565b5061091781610c0a565b515192915050565b6000807f00000000000000000000000000000000000000000000000000000000000000006001600160a01b031663461d27628688600188886040518663ffffffff1660e01b8152600401610977959493929190611397565b6020604051808303816000875af1158015610996573d6000803e3d6000fd5b505050506040513d601f19601f820116820180604052508101906109ba91906113e0565b60405190915081907f1131472297a800fee664d1d89cfa8f7676ff07189ecc53f80bbb5f4969099db890600090a295945050505050565b6002546001600160a01b03163314610a445760405162461bcd60e51b815260206004820152601660248201527527b7363c9031b0b63630b1363290313c9037bbb732b960511b60448201526064016102af565b565b336001600160a01b03821603610a9e5760405162461bcd60e51b815260206004820152601760248201527f43616e6e6f74207472616e7366657220746f2073656c6600000000000000000060448201526064016102af565b600380546001600160a01b0319166001600160a01b03838116918217909255600254604051919216907fed8889f560326eb138920d842192f0eb3dd22b4f139c87a2c57538e05bae127890600090a350565b8051600003610b12576040516322ce3edd60e01b815260040160405180910390fd5b83836002811115610b2557610b25611381565b90816002811115610b3857610b38611381565b90525060408401828015610b4e57610b4e611381565b90818015610b5e57610b5e611381565b9052506060909301929092525050565b610b76610fe3565b8051610b829083610c35565b5060006020820152919050565b610b9c8260038351610caf565b8151610ba89082610dce565b505050565b8151610bba9060c2610df6565b506106298282604051602001610bd291815260200190565b604051602081830303815290604052610c28565b610bf1816004610e5f565b600181602001818151610c04919061140f565b90525050565b610c15816007610e5f565b600181602001818151610c049190611422565b610b9c8260028351610caf565b604080518082019091526060815260006020820152610c55602083611435565b15610c7d57610c65602083611435565b610c70906020611422565b610c7a908361140f565b91505b602080840183905260405180855260008152908184010181811015610ca157600080fd5b604052508290505b92915050565b6017816001600160401b031611610cdb578251610cd59060e0600585901b168317610df6565b50505050565b60ff816001600160401b031611610d1b578251610d03906018611fe0600586901b1617610df6565b508251610cd5906001600160401b0383166001610e76565b61ffff816001600160401b031611610d5c578251610d44906019611fe0600586901b1617610df6565b508251610cd5906001600160401b0383166002610e76565b63ffffffff816001600160401b031611610d9f578251610d8790601a611fe0600586901b1617610df6565b508251610cd5906001600160401b0383166004610e76565b8251610db690601b611fe0600586901b1617610df6565b508251610cd5906001600160401b0383166008610e76565b604080518082019091526060815260006020820152610def83838451610efb565b9392505050565b6040805180820190915260608152600060208201528251516000610e1b82600161140f565b905084602001518210610e3c57610e3c85610e37836002611457565b610fcc565b8451602083820101858153508051821115610e55578181525b5093949350505050565b8151610ba890601f611fe0600585901b1617610df6565b6040805180820190915260608152600060208201528351516000610e9a828561140f565b90508560200151811115610eb757610eb786610e37836002611457565b60006001610ec786610100611552565b610ed19190611422565b90508651828101878319825116178152508051831115610eef578281525b50959695505050505050565b6040805180820190915260608152600060208201528251821115610f1e57600080fd5b8351516000610f2d848361140f565b90508560200151811115610f4a57610f4a86610e37836002611457565b855180518382016020019160009180851115610f64578482525b505050602086015b60208610610fa45780518252610f8360208361140f565b9150610f9060208261140f565b9050610f9d602087611422565b9550610f6c565b51815160001960208890036101000a0190811690199190911617905250849150509392505050565b8151610fd88383610c35565b50610cd58382610dce565b604051806040016040528061100b604051806040016040528060608152602001600081525090565b8152602001600081525090565b634e487b7160e01b600052604160045260246000fd5b604051601f8201601f191681016001600160401b038111828210171561105657611056611018565b604052919050565b60006001600160401b0382111561107757611077611018565b50601f01601f191660200190565b60006110986110938461105e565b61102e565b90508281528383830111156110ac57600080fd5b828260208301376000602084830101529392505050565b600082601f8301126110d457600080fd5b610def83833560208501611085565b6000806000606084860312156110f857600080fd5b8335925060208401356001600160401b038082111561111657600080fd5b611122878388016110c3565b9350604086013591508082111561113857600080fd5b50611145868287016110c3565b9150509250925092565b6000806000806080858703121561116557600080fd5b84356001600160401b038082111561117c57600080fd5b818701915087601f83011261119057600080fd5b61119f88833560208501611085565b95506020870135915080821682146111b657600080fd5b509250604085013563ffffffff811681146111d057600080fd5b9396929550929360600135925050565b60005b838110156111fb5781810151838201526020016111e3565b50506000910152565b6000815180845261121c8160208601602086016111e0565b601f01601f19169290920160200192915050565b602081526000610def6020830184611204565b60006020828403121561125557600080fd5b81356001600160a01b0381168114610def57600080fd5b60006020828403121561127e57600080fd5b5035919050565b60006020828403121561129757600080fd5b81516001600160401b038111156112ad57600080fd5b8201601f810184136112be57600080fd5b80516112cc6110938261105e565b8181528560208385010111156112e157600080fd5b6112f28260208301602086016111e0565b95945050505050565b634e487b7160e01b600052603260045260246000fd5b600181811c9082168061132557607f821691505b60208210810361134557634e487b7160e01b600052602260045260246000fd5b50919050565b6000806000806080858703121561136157600080fd5b505082516020840151604085015160609095015191969095509092509050565b634e487b7160e01b600052602160045260246000fd5b6001600160401b038616815260a0602082015260006113b960a0830187611204565b61ffff9590951660408301525063ffffffff92909216606083015260809091015292915050565b6000602082840312156113f257600080fd5b5051919050565b634e487b7160e01b600052601160045260246000fd5b80820180821115610ca957610ca96113f9565b81810381811115610ca957610ca96113f9565b60008261145257634e487b7160e01b600052601260045260246000fd5b500690565b8082028115828204841417610ca957610ca96113f9565b600181815b808511156114a957816000190482111561148f5761148f6113f9565b8085161561149c57918102915b93841c9390800290611473565b509250929050565b6000826114c057506001610ca9565b816114cd57506000610ca9565b81600181146114e357600281146114ed57611509565b6001915050610ca9565b60ff8411156114fe576114fe6113f9565b50506001821b610ca9565b5060208310610133831016604e8410600b841016171561152c575081810a610ca9565b611536838361146e565b806000190482111561154a5761154a6113f9565b029392505050565b6000610def83836114b156fea2646970667358221220f6d7b36d89abff6f7b8230eb2d60cdb186bf08447bdbc632fe5f45286a645ca964736f6c63430008180033636f6e7374207b20657468657273207d203d20617761697420696d706f727428276e706d3a65746865727340362e31302e3027293b636f6e73742048617368203d20617761697420696d706f727428276e706d3a697066732d6f6e6c792d6861736840342e302e3027293b636f6e737420617069526573706f6e7365203d2061776169742046756e6374696f6e732e6d616b654874747052657175657374287b2020202075726c3a206068747470733a2f2f6170692e627269646765646174616f75747075742e636f6d2f6170692f76322f4f446174612f746573742f50726f70657274792827505f35646261316662393461613430353562396632393639366627293f6163636573735f746f6b656e3d3662616361353437373432633666393661366666373162313338343234663231602c7d293b636f6e7374207265616c45737461746541646472657373203d20617069526573706f6e73652e646174612e556e706172736564416464726573733b636f6e737420796561724275696c74203d204e756d62657228617069526573706f6e73652e646174612e596561724275696c74293b636f6e7374206c6f7453697a6553717561726546656574203d204e756d62657228617069526573706f6e73652e646174612e4c6f7453697a6553717561726546656574293b636f6e7374206c6976696e6741726561203d204e756d62657228617069526573706f6e73652e646174612e4c6976696e6741726561293b636f6e737420626564726f6f6d73546f74616c203d204e756d62657228617069526573706f6e73652e646174612e426564726f6f6d73546f74616c293b636f6e7374206d65746164617461203d207b6e616d653a20605265616c2045737461746520546f6b656e602c617474726962757465733a205b7b2074726169745f747970653a20607265616c45737461746541646472657373602c2076616c75653a207265616c45737461746541646472657373207d2c7b2074726169745f747970653a2060796561724275696c74602c2076616c75653a20796561724275696c74207d2c7b2074726169745f747970653a20606c6f7453697a6553717561726546656574602c2076616c75653a206c6f7453697a6553717561726546656574207d2c7b2074726169745f747970653a20606c6976696e6741726561602c2076616c75653a206c6976696e6741726561207d2c7b2074726169745f747970653a2060626564726f6f6d73546f74616c602c2076616c75653a20626564726f6f6d73546f74616c207d5d7d3b636f6e7374206d65746164617461537472696e67203d204a534f4e2e737472696e67696679286d65746164617461293b636f6e73742069706673436964203d20617761697420486173682e6f66286d65746164617461537472696e67293b72657475726e2046756e6374696f6e732e656e636f6465537472696e672860697066733a2f2f247b697066734369647d60293b636f6e7374207b20657468657273207d203d20617761697420696d706f727428276e706d3a65746865727340362e31302e3027293b636f6e737420616269436f646572203d206574686572732e416269436f6465722e64656661756c74416269436f64657228293b636f6e737420746f6b656e4964203d20617267735b305d3b636f6e737420617069526573706f6e7365203d2061776169742046756e6374696f6e732e6d616b654874747052657175657374287b2020202075726c3a206068747470733a2f2f6170692e627269646765646174616f75747075742e636f6d2f6170692f76322f4f446174612f746573742f50726f70657274792827505f35646261316662393461613430353562396632393639366627293f6163636573735f746f6b656e3d3662616361353437373432633666393661366666373162313338343234663231602c7d293b636f6e7374206c6973745072696365203d204e756d62657228617069526573706f6e73652e646174612e4c6973745072696365293b636f6e7374206f726967696e616c4c6973745072696365203d204e756d62657228617069526573706f6e73652e646174612e4f726967696e616c4c6973745072696365293b636f6e737420746178417373657373656456616c7565203d204e756d62657228617069526573706f6e73652e646174612e546178417373657373656456616c7565293b636f6e737420656e636f646564203d20616269436f6465722e656e636f6465285b6075696e74323536602c206075696e74323536602c206075696e74323536602c206075696e74323536605d2c205b746f6b656e49642c206c69737450726963652c206f726967696e616c4c69737450726963652c20746178417373657373656456616c75655d293b72657475726e206574686572732e676574427974657328656e636f646564293b",
			"opcodes": "PUSH2 0x500 PUSH1 0x40 MSTORE PUSH2 0x43B PUSH1 0xA0 DUP2 DUP2 MSTORE SWAP1 PUSH3 0x192B PUSH1 0xC0 CODECOPY PUSH1 0x0 SWAP1 PUSH3 0x24 SWAP1 DUP3 PUSH3 0x276 JUMP JUMPDEST POP PUSH1 0x40 MLOAD DUP1 PUSH2 0x2E0 ADD PUSH1 0x40 MSTORE DUP1 PUSH2 0x2B1 DUP2 MSTORE PUSH1 0x20 ADD PUSH3 0x1D66 PUSH2 0x2B1 SWAP2 CODECOPY PUSH1 0x1 SWAP1 PUSH3 0x51 SWAP1 DUP3 PUSH3 0x276 JUMP JUMPDEST POP CALLVALUE DUP1 ISZERO PUSH3 0x5F JUMPI PUSH1 0x0 DUP1 REVERT JUMPDEST POP PUSH1 0x40 MLOAD PUSH3 0x2017 CODESIZE SUB DUP1 PUSH3 0x2017 DUP4 CODECOPY DUP2 ADD PUSH1 0x40 DUP2 SWAP1 MSTORE PUSH3 0x82 SWAP2 PUSH3 0x342 JUMP JUMPDEST PUSH1 0x1 PUSH1 0x1 PUSH1 0xA0 SHL SUB DUP2 AND PUSH1 0x80 MSTORE CALLER DUP1 PUSH1 0x0 DUP2 PUSH3 0xE6 JUMPI PUSH1 0x40 MLOAD PUSH3 0x461BCD PUSH1 0xE5 SHL DUP2 MSTORE PUSH1 0x20 PUSH1 0x4 DUP3 ADD MSTORE PUSH1 0x18 PUSH1 0x24 DUP3 ADD MSTORE PUSH32 0x43616E6E6F7420736574206F776E657220746F207A65726F0000000000000000 PUSH1 0x44 DUP3 ADD MSTORE PUSH1 0x64 ADD JUMPDEST PUSH1 0x40 MLOAD DUP1 SWAP2 SUB SWAP1 REVERT JUMPDEST PUSH1 0x2 DUP1 SLOAD PUSH1 0x1 PUSH1 0x1 PUSH1 0xA0 SHL SUB NOT AND PUSH1 0x1 PUSH1 0x1 PUSH1 0xA0 SHL SUB DUP5 DUP2 AND SWAP2 SWAP1 SWAP2 OR SWAP1 SWAP2 SSTORE DUP2 AND ISZERO PUSH3 0x119 JUMPI PUSH3 0x119 DUP2 PUSH3 0x123 JUMP JUMPDEST POP POP POP POP PUSH3 0x374 JUMP JUMPDEST CALLER PUSH1 0x1 PUSH1 0x1 PUSH1 0xA0 SHL SUB DUP3 AND SUB PUSH3 0x17D JUMPI PUSH1 0x40 MLOAD PUSH3 0x461BCD PUSH1 0xE5 SHL DUP2 MSTORE PUSH1 0x20 PUSH1 0x4 DUP3 ADD MSTORE PUSH1 0x17 PUSH1 0x24 DUP3 ADD MSTORE PUSH32 0x43616E6E6F74207472616E7366657220746F2073656C66000000000000000000 PUSH1 0x44 DUP3 ADD MSTORE PUSH1 0x64 ADD PUSH3 0xDD JUMP JUMPDEST PUSH1 0x3 DUP1 SLOAD PUSH1 0x1 PUSH1 0x1 PUSH1 0xA0 SHL SUB NOT AND PUSH1 0x1 PUSH1 0x1 PUSH1 0xA0 SHL SUB DUP4 DUP2 AND SWAP2 DUP3 OR SWAP1 SWAP3 SSTORE PUSH1 0x2 SLOAD PUSH1 0x40 MLOAD SWAP2 SWAP3 AND SWAP1 PUSH32 0xED8889F560326EB138920D842192F0EB3DD22B4F139C87A2C57538E05BAE1278 SWAP1 PUSH1 0x0 SWAP1 LOG3 POP JUMP JUMPDEST PUSH4 0x4E487B71 PUSH1 0xE0 SHL PUSH1 0x0 MSTORE PUSH1 0x41 PUSH1 0x4 MSTORE PUSH1 0x24 PUSH1 0x0 REVERT JUMPDEST PUSH1 0x1 DUP2 DUP2 SHR SWAP1 DUP3 AND DUP1 PUSH3 0x1FA JUMPI PUSH1 0x7F DUP3 AND SWAP2 POP JUMPDEST PUSH1 0x20 DUP3 LT DUP2 SUB PUSH3 0x21B JUMPI PUSH4 0x4E487B71 PUSH1 0xE0 SHL PUSH1 0x0 MSTORE PUSH1 0x22 PUSH1 0x4 MSTORE PUSH1 0x24 PUSH1 0x0 REVERT JUMPDEST POP SWAP2 SWAP1 POP JUMP JUMPDEST PUSH1 0x1F DUP3 GT ISZERO PUSH3 0x271 JUMPI PUSH1 0x0 DUP2 PUSH1 0x0 MSTORE PUSH1 0x20 PUSH1 0x0 KECCAK256 PUSH1 0x1F DUP6 ADD PUSH1 0x5 SHR DUP2 ADD PUSH1 0x20 DUP7 LT ISZERO PUSH3 0x24C JUMPI POP DUP1 JUMPDEST PUSH1 0x1F DUP6 ADD PUSH1 0x5 SHR DUP3 ADD SWAP2 POP JUMPDEST DUP2 DUP2 LT ISZERO PUSH3 0x26D JUMPI DUP3 DUP2 SSTORE PUSH1 0x1 ADD PUSH3 0x258 JUMP JUMPDEST POP POP POP JUMPDEST POP POP POP JUMP JUMPDEST DUP2 MLOAD PUSH1 0x1 PUSH1 0x1 PUSH1 0x40 SHL SUB DUP2 GT ISZERO PUSH3 0x292 JUMPI PUSH3 0x292 PUSH3 0x1CF JUMP JUMPDEST PUSH3 0x2AA DUP2 PUSH3 0x2A3 DUP5 SLOAD PUSH3 0x1E5 JUMP JUMPDEST DUP5 PUSH3 0x221 JUMP JUMPDEST PUSH1 0x20 DUP1 PUSH1 0x1F DUP4 GT PUSH1 0x1 DUP2 EQ PUSH3 0x2E2 JUMPI PUSH1 0x0 DUP5 ISZERO PUSH3 0x2C9 JUMPI POP DUP6 DUP4 ADD MLOAD JUMPDEST PUSH1 0x0 NOT PUSH1 0x3 DUP7 SWAP1 SHL SHR NOT AND PUSH1 0x1 DUP6 SWAP1 SHL OR DUP6 SSTORE PUSH3 0x26D JUMP JUMPDEST PUSH1 0x0 DUP6 DUP2 MSTORE PUSH1 0x20 DUP2 KECCAK256 PUSH1 0x1F NOT DUP7 AND SWAP2 JUMPDEST DUP3 DUP2 LT ISZERO PUSH3 0x313 JUMPI DUP9 DUP7 ADD MLOAD DUP3 SSTORE SWAP5 DUP5 ADD SWAP5 PUSH1 0x1 SWAP1 SWAP2 ADD SWAP1 DUP5 ADD PUSH3 0x2F2 JUMP JUMPDEST POP DUP6 DUP3 LT ISZERO PUSH3 0x332 JUMPI DUP8 DUP6 ADD MLOAD PUSH1 0x0 NOT PUSH1 0x3 DUP9 SWAP1 SHL PUSH1 0xF8 AND SHR NOT AND DUP2 SSTORE JUMPDEST POP POP POP POP POP PUSH1 0x1 SWAP1 DUP2 SHL ADD SWAP1 SSTORE POP JUMP JUMPDEST PUSH1 0x0 PUSH1 0x20 DUP3 DUP5 SUB SLT ISZERO PUSH3 0x355 JUMPI PUSH1 0x0 DUP1 REVERT JUMPDEST DUP2 MLOAD PUSH1 0x1 PUSH1 0x1 PUSH1 0xA0 SHL SUB DUP2 AND DUP2 EQ PUSH3 0x36D JUMPI PUSH1 0x0 DUP1 REVERT JUMPDEST SWAP4 SWAP3 POP POP POP JUMP JUMPDEST PUSH1 0x80 MLOAD PUSH2 0x1594 PUSH3 0x397 PUSH1 0x0 CODECOPY PUSH1 0x0 DUP2 DUP2 PUSH2 0x1E7 ADD MSTORE PUSH2 0x924 ADD MSTORE PUSH2 0x1594 PUSH1 0x0 RETURN INVALID PUSH1 0x80 PUSH1 0x40 MSTORE CALLVALUE DUP1 ISZERO PUSH2 0x10 JUMPI PUSH1 0x0 DUP1 REVERT JUMPDEST POP PUSH1 0x4 CALLDATASIZE LT PUSH2 0x93 JUMPI PUSH1 0x0 CALLDATALOAD PUSH1 0xE0 SHR DUP1 PUSH4 0xBD9A548B GT PUSH2 0x66 JUMPI DUP1 PUSH4 0xBD9A548B EQ PUSH2 0xF6 JUMPI DUP1 PUSH4 0xD40D17BC EQ PUSH2 0x10B JUMPI DUP1 PUSH4 0xE6B46FF5 EQ PUSH2 0x11E JUMPI DUP1 PUSH4 0xF0ED2E80 EQ PUSH2 0x126 JUMPI DUP1 PUSH4 0xF2FDE38B EQ PUSH2 0x1C9 JUMPI PUSH1 0x0 DUP1 REVERT JUMPDEST DUP1 PUSH4 0xCA76175 EQ PUSH2 0x98 JUMPI DUP1 PUSH4 0x79BA5097 EQ PUSH2 0xAD JUMPI DUP1 PUSH4 0x8DA5CB5B EQ PUSH2 0xB5 JUMPI DUP1 PUSH4 0xA843A0AB EQ PUSH2 0xD5 JUMPI JUMPDEST PUSH1 0x0 DUP1 REVERT JUMPDEST PUSH2 0xAB PUSH2 0xA6 CALLDATASIZE PUSH1 0x4 PUSH2 0x10E3 JUMP JUMPDEST PUSH2 0x1DC JUMP JUMPDEST STOP JUMPDEST PUSH2 0xAB PUSH2 0x260 JUMP JUMPDEST PUSH1 0x2 SLOAD PUSH1 0x40 MLOAD PUSH1 0x1 PUSH1 0x1 PUSH1 0xA0 SHL SUB SWAP1 SWAP2 AND DUP2 MSTORE PUSH1 0x20 ADD JUMPDEST PUSH1 0x40 MLOAD DUP1 SWAP2 SUB SWAP1 RETURN JUMPDEST PUSH2 0xE8 PUSH2 0xE3 CALLDATASIZE PUSH1 0x4 PUSH2 0x114F JUMP JUMPDEST PUSH2 0x313 JUMP JUMPDEST PUSH1 0x40 MLOAD SWAP1 DUP2 MSTORE PUSH1 0x20 ADD PUSH2 0xCC JUMP JUMPDEST PUSH2 0xFE PUSH2 0x481 JUMP JUMPDEST PUSH1 0x40 MLOAD PUSH2 0xCC SWAP2 SWAP1 PUSH2 0x1230 JUMP JUMPDEST PUSH2 0xAB PUSH2 0x119 CALLDATASIZE PUSH1 0x4 PUSH2 0x1243 JUMP JUMPDEST PUSH2 0x50F JUMP JUMPDEST PUSH2 0xFE PUSH2 0x539 JUMP JUMPDEST PUSH2 0x194 PUSH2 0x134 CALLDATASIZE PUSH1 0x4 PUSH2 0x126C JUMP JUMPDEST PUSH1 0x40 DUP1 MLOAD PUSH1 0x60 DUP1 DUP3 ADD DUP4 MSTORE PUSH1 0x0 DUP1 DUP4 MSTORE PUSH1 0x20 DUP1 DUP5 ADD DUP3 SWAP1 MSTORE SWAP3 DUP5 ADD DUP2 SWAP1 MSTORE SWAP4 DUP5 MSTORE PUSH1 0x5 DUP3 MSTORE SWAP3 DUP3 SWAP1 KECCAK256 DUP3 MLOAD SWAP4 DUP5 ADD DUP4 MSTORE SLOAD PUSH10 0xFFFFFFFFFFFFFFFFFFFF DUP1 DUP3 AND DUP6 MSTORE PUSH1 0x1 PUSH1 0x50 SHL DUP3 DIV DUP2 AND SWAP3 DUP6 ADD SWAP3 SWAP1 SWAP3 MSTORE PUSH1 0x1 PUSH1 0xA0 SHL SWAP1 DIV AND SWAP1 DUP3 ADD MSTORE SWAP1 JUMP JUMPDEST PUSH1 0x40 DUP1 MLOAD DUP3 MLOAD PUSH10 0xFFFFFFFFFFFFFFFFFFFF SWAP1 DUP2 AND DUP3 MSTORE PUSH1 0x20 DUP1 DUP6 ADD MLOAD DUP3 AND SWAP1 DUP4 ADD MSTORE SWAP3 DUP3 ADD MLOAD SWAP1 SWAP3 AND SWAP1 DUP3 ADD MSTORE PUSH1 0x60 ADD PUSH2 0xCC JUMP JUMPDEST PUSH2 0xAB PUSH2 0x1D7 CALLDATASIZE PUSH1 0x4 PUSH2 0x1243 JUMP JUMPDEST PUSH2 0x546 JUMP JUMPDEST CALLER PUSH1 0x1 PUSH1 0x1 PUSH1 0xA0 SHL SUB PUSH32 0x0 AND EQ PUSH2 0x225 JUMPI PUSH1 0x40 MLOAD PUSH4 0xC6829F83 PUSH1 0xE0 SHL DUP2 MSTORE PUSH1 0x4 ADD PUSH1 0x40 MLOAD DUP1 SWAP2 SUB SWAP1 REVERT JUMPDEST PUSH2 0x230 DUP4 DUP4 DUP4 PUSH2 0x55A JUMP JUMPDEST PUSH1 0x40 MLOAD DUP4 SWAP1 PUSH32 0x85E1543BF2F84FE80C6BADBCE3648C8539AD1DF4D2B3D822938CA0538BE727E6 SWAP1 PUSH1 0x0 SWAP1 LOG2 POP POP POP JUMP JUMPDEST PUSH1 0x3 SLOAD PUSH1 0x1 PUSH1 0x1 PUSH1 0xA0 SHL SUB AND CALLER EQ PUSH2 0x2B8 JUMPI PUSH1 0x40 MLOAD PUSH3 0x461BCD PUSH1 0xE5 SHL DUP2 MSTORE PUSH1 0x20 PUSH1 0x4 DUP3 ADD MSTORE PUSH1 0x16 PUSH1 0x24 DUP3 ADD MSTORE PUSH22 0x26BAB9BA10313290383937B837B9B2B21037BBB732B9 PUSH1 0x51 SHL PUSH1 0x44 DUP3 ADD MSTORE PUSH1 0x64 ADD JUMPDEST PUSH1 0x40 MLOAD DUP1 SWAP2 SUB SWAP1 REVERT JUMPDEST PUSH1 0x2 DUP1 SLOAD PUSH1 0x1 PUSH1 0x1 PUSH1 0xA0 SHL SUB NOT DUP1 DUP3 AND CALLER SWAP1 DUP2 OR SWAP1 SWAP4 SSTORE PUSH1 0x3 DUP1 SLOAD SWAP1 SWAP2 AND SWAP1 SSTORE PUSH1 0x40 MLOAD PUSH1 0x1 PUSH1 0x1 PUSH1 0xA0 SHL SUB SWAP1 SWAP2 AND SWAP2 SWAP1 DUP3 SWAP1 PUSH32 0x8BE0079C531659141344CD1FD0A4F28419497F9722A3DAAFE3B4186F6B6457E0 SWAP1 PUSH1 0x0 SWAP1 LOG3 POP JUMP JUMPDEST PUSH1 0x4 SLOAD PUSH1 0x0 SWAP1 PUSH1 0x1 PUSH1 0x1 PUSH1 0xA0 SHL SUB AND CALLER EQ DUP1 ISZERO SWAP1 PUSH2 0x33C JUMPI POP PUSH1 0x2 SLOAD PUSH1 0x1 PUSH1 0x1 PUSH1 0xA0 SHL SUB AND CALLER EQ ISZERO JUMPDEST ISZERO PUSH2 0x35A JUMPI PUSH1 0x40 MLOAD PUSH4 0x2DC7D2F PUSH1 0xE2 SHL DUP2 MSTORE PUSH1 0x4 ADD PUSH1 0x40 MLOAD DUP1 SWAP2 SUB SWAP1 REVERT JUMPDEST PUSH2 0x39B PUSH1 0x40 DUP1 MLOAD PUSH1 0xE0 DUP2 ADD SWAP1 SWAP2 MSTORE DUP1 PUSH1 0x0 DUP2 MSTORE PUSH1 0x20 ADD PUSH1 0x0 DUP2 MSTORE PUSH1 0x20 ADD PUSH1 0x0 DUP2 MSTORE PUSH1 0x20 ADD PUSH1 0x60 DUP2 MSTORE PUSH1 0x20 ADD PUSH1 0x60 DUP2 MSTORE PUSH1 0x20 ADD PUSH1 0x60 DUP2 MSTORE PUSH1 0x20 ADD PUSH1 0x60 DUP2 MSTORE POP SWAP1 JUMP JUMPDEST PUSH2 0x40B ADDRESS PUSH1 0x1 PUSH1 0x1 PUSH1 0xA0 SHL SUB AND PUSH4 0xBD9A548B PUSH1 0x40 MLOAD DUP2 PUSH4 0xFFFFFFFF AND PUSH1 0xE0 SHL DUP2 MSTORE PUSH1 0x4 ADD PUSH1 0x0 PUSH1 0x40 MLOAD DUP1 DUP4 SUB DUP2 DUP7 GAS STATICCALL ISZERO DUP1 ISZERO PUSH2 0x3DC JUMPI RETURNDATASIZE PUSH1 0x0 DUP1 RETURNDATACOPY RETURNDATASIZE PUSH1 0x0 REVERT JUMPDEST POP POP POP POP PUSH1 0x40 MLOAD RETURNDATASIZE PUSH1 0x0 DUP3 RETURNDATACOPY PUSH1 0x1F RETURNDATASIZE SWAP1 DUP2 ADD PUSH1 0x1F NOT AND DUP3 ADD PUSH1 0x40 MSTORE PUSH2 0x404 SWAP2 SWAP1 DUP2 ADD SWAP1 PUSH2 0x1285 JUMP JUMPDEST DUP3 SWAP1 PUSH2 0x61C JUMP JUMPDEST PUSH1 0x40 DUP1 MLOAD PUSH1 0x1 DUP1 DUP3 MSTORE DUP2 DUP4 ADD SWAP1 SWAP3 MSTORE PUSH1 0x0 SWAP2 DUP2 PUSH1 0x20 ADD JUMPDEST PUSH1 0x60 DUP2 MSTORE PUSH1 0x20 ADD SWAP1 PUSH1 0x1 SWAP1 SUB SWAP1 DUP2 PUSH2 0x422 JUMPI SWAP1 POP POP SWAP1 POP DUP7 DUP2 PUSH1 0x0 DUP2 MLOAD DUP2 LT PUSH2 0x44D JUMPI PUSH2 0x44D PUSH2 0x12FB JUMP JUMPDEST PUSH1 0x20 SWAP1 DUP2 MUL SWAP2 SWAP1 SWAP2 ADD ADD MSTORE PUSH2 0x462 DUP3 DUP3 PUSH2 0x62D JUMP JUMPDEST PUSH2 0x476 PUSH2 0x46E DUP4 PUSH2 0x657 JUMP JUMPDEST DUP8 DUP8 DUP8 PUSH2 0x91F JUMP JUMPDEST SWAP8 SWAP7 POP POP POP POP POP POP POP JUMP JUMPDEST PUSH1 0x1 DUP1 SLOAD PUSH2 0x48E SWAP1 PUSH2 0x1311 JUMP JUMPDEST DUP1 PUSH1 0x1F ADD PUSH1 0x20 DUP1 SWAP2 DIV MUL PUSH1 0x20 ADD PUSH1 0x40 MLOAD SWAP1 DUP2 ADD PUSH1 0x40 MSTORE DUP1 SWAP3 SWAP2 SWAP1 DUP2 DUP2 MSTORE PUSH1 0x20 ADD DUP3 DUP1 SLOAD PUSH2 0x4BA SWAP1 PUSH2 0x1311 JUMP JUMPDEST DUP1 ISZERO PUSH2 0x507 JUMPI DUP1 PUSH1 0x1F LT PUSH2 0x4DC JUMPI PUSH2 0x100 DUP1 DUP4 SLOAD DIV MUL DUP4 MSTORE SWAP2 PUSH1 0x20 ADD SWAP2 PUSH2 0x507 JUMP JUMPDEST DUP3 ADD SWAP2 SWAP1 PUSH1 0x0 MSTORE PUSH1 0x20 PUSH1 0x0 KECCAK256 SWAP1 JUMPDEST DUP2 SLOAD DUP2 MSTORE SWAP1 PUSH1 0x1 ADD SWAP1 PUSH1 0x20 ADD DUP1 DUP4 GT PUSH2 0x4EA JUMPI DUP3 SWAP1 SUB PUSH1 0x1F AND DUP3 ADD SWAP2 JUMPDEST POP POP POP POP POP DUP2 JUMP JUMPDEST PUSH2 0x517 PUSH2 0x9F1 JUMP JUMPDEST PUSH1 0x4 DUP1 SLOAD PUSH1 0x1 PUSH1 0x1 PUSH1 0xA0 SHL SUB NOT AND PUSH1 0x1 PUSH1 0x1 PUSH1 0xA0 SHL SUB SWAP3 SWAP1 SWAP3 AND SWAP2 SWAP1 SWAP2 OR SWAP1 SSTORE JUMP JUMPDEST PUSH1 0x0 DUP1 SLOAD PUSH2 0x48E SWAP1 PUSH2 0x1311 JUMP JUMPDEST PUSH2 0x54E PUSH2 0x9F1 JUMP JUMPDEST PUSH2 0x557 DUP2 PUSH2 0xA46 JUMP JUMPDEST POP JUMP JUMPDEST DUP1 MLOAD ISZERO PUSH2 0x57B JUMPI DUP1 PUSH1 0x40 MLOAD PUSH3 0x461BCD PUSH1 0xE5 SHL DUP2 MSTORE PUSH1 0x4 ADD PUSH2 0x2AF SWAP2 SWAP1 PUSH2 0x1230 JUMP JUMPDEST PUSH1 0x0 DUP1 PUSH1 0x0 DUP1 DUP6 DUP1 PUSH1 0x20 ADD SWAP1 MLOAD DUP2 ADD SWAP1 PUSH2 0x595 SWAP2 SWAP1 PUSH2 0x134B JUMP JUMPDEST PUSH1 0x40 DUP1 MLOAD PUSH1 0x60 DUP2 ADD DUP3 MSTORE PUSH10 0xFFFFFFFFFFFFFFFFFFFF SWAP5 DUP6 AND DUP2 MSTORE SWAP3 DUP5 AND PUSH1 0x20 DUP1 DUP6 ADD SWAP2 DUP3 MSTORE SWAP3 DUP6 AND DUP5 DUP4 ADD SWAP1 DUP2 MSTORE PUSH1 0x0 SWAP7 DUP8 MSTORE PUSH1 0x5 SWAP1 SWAP4 MSTORE SWAP5 KECCAK256 SWAP2 MLOAD DUP3 SLOAD SWAP5 MLOAD SWAP2 MLOAD DUP5 AND PUSH1 0x1 PUSH1 0xA0 SHL MUL PUSH10 0xFFFFFFFFFFFFFFFFFFFF PUSH1 0xA0 SHL NOT SWAP3 DUP6 AND PUSH1 0x1 PUSH1 0x50 SHL MUL PUSH1 0x1 PUSH1 0x1 PUSH1 0xA0 SHL SUB NOT SWAP1 SWAP7 AND SWAP2 SWAP1 SWAP5 AND OR SWAP4 SWAP1 SWAP4 OR SWAP3 SWAP1 SWAP3 AND OR SWAP1 SSTORE POP POP POP POP POP POP POP JUMP JUMPDEST PUSH2 0x629 DUP3 PUSH1 0x0 DUP1 DUP5 PUSH2 0xAF0 JUMP JUMPDEST POP POP JUMP JUMPDEST DUP1 MLOAD PUSH1 0x0 SUB PUSH2 0x64F JUMPI PUSH1 0x40 MLOAD PUSH4 0xFE936CB7 PUSH1 0xE0 SHL DUP2 MSTORE PUSH1 0x4 ADD PUSH1 0x40 MLOAD DUP1 SWAP2 SUB SWAP1 REVERT JUMPDEST PUSH1 0xA0 SWAP1 SWAP2 ADD MSTORE JUMP JUMPDEST PUSH1 0x60 PUSH1 0x0 PUSH2 0x666 PUSH2 0x100 PUSH2 0xB6E JUMP JUMPDEST SWAP1 POP PUSH2 0x69F PUSH1 0x40 MLOAD DUP1 PUSH1 0x40 ADD PUSH1 0x40 MSTORE DUP1 PUSH1 0xC DUP2 MSTORE PUSH1 0x20 ADD PUSH12 0x31B7B232A637B1B0BA34B7B7 PUSH1 0xA1 SHL DUP2 MSTORE POP DUP3 PUSH2 0xB8F SWAP1 SWAP2 SWAP1 PUSH4 0xFFFFFFFF AND JUMP JUMPDEST DUP3 MLOAD PUSH2 0x6BD SWAP1 PUSH1 0x2 DUP2 GT ISZERO PUSH2 0x6B6 JUMPI PUSH2 0x6B6 PUSH2 0x1381 JUMP JUMPDEST DUP3 SWAP1 PUSH2 0xBAD JUMP JUMPDEST PUSH1 0x40 DUP1 MLOAD DUP1 DUP3 ADD SWAP1 SWAP2 MSTORE PUSH1 0x8 DUP2 MSTORE PUSH8 0x6C616E6775616765 PUSH1 0xC0 SHL PUSH1 0x20 DUP3 ADD MSTORE PUSH2 0x6E7 SWAP1 DUP3 SWAP1 PUSH2 0xB8F JUMP JUMPDEST PUSH1 0x40 DUP4 ADD MLOAD PUSH2 0x6FE SWAP1 DUP1 ISZERO PUSH2 0x6B6 JUMPI PUSH2 0x6B6 PUSH2 0x1381 JUMP JUMPDEST PUSH1 0x40 DUP1 MLOAD DUP1 DUP3 ADD SWAP1 SWAP2 MSTORE PUSH1 0x6 DUP2 MSTORE PUSH6 0x736F75726365 PUSH1 0xD0 SHL PUSH1 0x20 DUP3 ADD MSTORE PUSH2 0x726 SWAP1 DUP3 SWAP1 PUSH2 0xB8F JUMP JUMPDEST PUSH1 0x60 DUP4 ADD MLOAD PUSH2 0x736 SWAP1 DUP3 SWAP1 PUSH2 0xB8F JUMP JUMPDEST PUSH1 0xA0 DUP4 ADD MLOAD MLOAD ISZERO PUSH2 0x7C2 JUMPI PUSH1 0x40 DUP1 MLOAD DUP1 DUP3 ADD SWAP1 SWAP2 MSTORE PUSH1 0x4 DUP2 MSTORE PUSH4 0x61726773 PUSH1 0xE0 SHL PUSH1 0x20 DUP3 ADD MSTORE PUSH2 0x767 SWAP1 DUP3 SWAP1 PUSH2 0xB8F JUMP JUMPDEST PUSH2 0x770 DUP2 PUSH2 0xBE6 JUMP JUMPDEST PUSH1 0x0 JUMPDEST DUP4 PUSH1 0xA0 ADD MLOAD MLOAD DUP2 LT ISZERO PUSH2 0x7B8 JUMPI PUSH2 0x7B0 DUP5 PUSH1 0xA0 ADD MLOAD DUP3 DUP2 MLOAD DUP2 LT PUSH2 0x799 JUMPI PUSH2 0x799 PUSH2 0x12FB JUMP JUMPDEST PUSH1 0x20 MUL PUSH1 0x20 ADD ADD MLOAD DUP4 PUSH2 0xB8F SWAP1 SWAP2 SWAP1 PUSH4 0xFFFFFFFF AND JUMP JUMPDEST PUSH1 0x1 ADD PUSH2 0x773 JUMP JUMPDEST POP PUSH2 0x7C2 DUP2 PUSH2 0xC0A JUMP JUMPDEST PUSH1 0x80 DUP4 ADD MLOAD MLOAD ISZERO PUSH2 0x886 JUMPI PUSH1 0x0 DUP4 PUSH1 0x20 ADD MLOAD PUSH1 0x2 DUP2 GT ISZERO PUSH2 0x7E5 JUMPI PUSH2 0x7E5 PUSH2 0x1381 JUMP JUMPDEST SUB PUSH2 0x803 JUMPI PUSH1 0x40 MLOAD PUSH4 0xA80D31F7 PUSH1 0xE0 SHL DUP2 MSTORE PUSH1 0x4 ADD PUSH1 0x40 MLOAD DUP1 SWAP2 SUB SWAP1 REVERT JUMPDEST PUSH1 0x40 DUP1 MLOAD DUP1 DUP3 ADD SWAP1 SWAP2 MSTORE PUSH1 0xF DUP2 MSTORE PUSH15 0x39B2B1B932BA39A637B1B0BA34B7B7 PUSH1 0x89 SHL PUSH1 0x20 DUP3 ADD MSTORE PUSH2 0x834 SWAP1 DUP3 SWAP1 PUSH2 0xB8F JUMP JUMPDEST PUSH2 0x84D DUP4 PUSH1 0x20 ADD MLOAD PUSH1 0x2 DUP2 GT ISZERO PUSH2 0x6B6 JUMPI PUSH2 0x6B6 PUSH2 0x1381 JUMP JUMPDEST PUSH1 0x40 DUP1 MLOAD DUP1 DUP3 ADD SWAP1 SWAP2 MSTORE PUSH1 0x7 DUP2 MSTORE PUSH7 0x73656372657473 PUSH1 0xC8 SHL PUSH1 0x20 DUP3 ADD MSTORE PUSH2 0x876 SWAP1 DUP3 SWAP1 PUSH2 0xB8F JUMP JUMPDEST PUSH1 0x80 DUP4 ADD MLOAD PUSH2 0x886 SWAP1 DUP3 SWAP1 PUSH2 0xC28 JUMP JUMPDEST PUSH1 0xC0 DUP4 ADD MLOAD MLOAD ISZERO PUSH2 0x917 JUMPI PUSH1 0x40 DUP1 MLOAD DUP1 DUP3 ADD SWAP1 SWAP2 MSTORE PUSH1 0x9 DUP2 MSTORE PUSH9 0x627974657341726773 PUSH1 0xB8 SHL PUSH1 0x20 DUP3 ADD MSTORE PUSH2 0x8BC SWAP1 DUP3 SWAP1 PUSH2 0xB8F JUMP JUMPDEST PUSH2 0x8C5 DUP2 PUSH2 0xBE6 JUMP JUMPDEST PUSH1 0x0 JUMPDEST DUP4 PUSH1 0xC0 ADD MLOAD MLOAD DUP2 LT ISZERO PUSH2 0x90D JUMPI PUSH2 0x905 DUP5 PUSH1 0xC0 ADD MLOAD DUP3 DUP2 MLOAD DUP2 LT PUSH2 0x8EE JUMPI PUSH2 0x8EE PUSH2 0x12FB JUMP JUMPDEST PUSH1 0x20 MUL PUSH1 0x20 ADD ADD MLOAD DUP4 PUSH2 0xC28 SWAP1 SWAP2 SWAP1 PUSH4 0xFFFFFFFF AND JUMP JUMPDEST PUSH1 0x1 ADD PUSH2 0x8C8 JUMP JUMPDEST POP PUSH2 0x917 DUP2 PUSH2 0xC0A JUMP JUMPDEST MLOAD MLOAD SWAP3 SWAP2 POP POP JUMP JUMPDEST PUSH1 0x0 DUP1 PUSH32 0x0 PUSH1 0x1 PUSH1 0x1 PUSH1 0xA0 SHL SUB AND PUSH4 0x461D2762 DUP7 DUP9 PUSH1 0x1 DUP9 DUP9 PUSH1 0x40 MLOAD DUP7 PUSH4 0xFFFFFFFF AND PUSH1 0xE0 SHL DUP2 MSTORE PUSH1 0x4 ADD PUSH2 0x977 SWAP6 SWAP5 SWAP4 SWAP3 SWAP2 SWAP1 PUSH2 0x1397 JUMP JUMPDEST PUSH1 0x20 PUSH1 0x40 MLOAD DUP1 DUP4 SUB DUP2 PUSH1 0x0 DUP8 GAS CALL ISZERO DUP1 ISZERO PUSH2 0x996 JUMPI RETURNDATASIZE PUSH1 0x0 DUP1 RETURNDATACOPY RETURNDATASIZE PUSH1 0x0 REVERT JUMPDEST POP POP POP POP PUSH1 0x40 MLOAD RETURNDATASIZE PUSH1 0x1F NOT PUSH1 0x1F DUP3 ADD AND DUP3 ADD DUP1 PUSH1 0x40 MSTORE POP DUP2 ADD SWAP1 PUSH2 0x9BA SWAP2 SWAP1 PUSH2 0x13E0 JUMP JUMPDEST PUSH1 0x40 MLOAD SWAP1 SWAP2 POP DUP2 SWAP1 PUSH32 0x1131472297A800FEE664D1D89CFA8F7676FF07189ECC53F80BBB5F4969099DB8 SWAP1 PUSH1 0x0 SWAP1 LOG2 SWAP6 SWAP5 POP POP POP POP POP JUMP JUMPDEST PUSH1 0x2 SLOAD PUSH1 0x1 PUSH1 0x1 PUSH1 0xA0 SHL SUB AND CALLER EQ PUSH2 0xA44 JUMPI PUSH1 0x40 MLOAD PUSH3 0x461BCD PUSH1 0xE5 SHL DUP2 MSTORE PUSH1 0x20 PUSH1 0x4 DUP3 ADD MSTORE PUSH1 0x16 PUSH1 0x24 DUP3 ADD MSTORE PUSH22 0x27B7363C9031B0B63630B1363290313C9037BBB732B9 PUSH1 0x51 SHL PUSH1 0x44 DUP3 ADD MSTORE PUSH1 0x64 ADD PUSH2 0x2AF JUMP JUMPDEST JUMP JUMPDEST CALLER PUSH1 0x1 PUSH1 0x1 PUSH1 0xA0 SHL SUB DUP3 AND SUB PUSH2 0xA9E JUMPI PUSH1 0x40 MLOAD PUSH3 0x461BCD PUSH1 0xE5 SHL DUP2 MSTORE PUSH1 0x20 PUSH1 0x4 DUP3 ADD MSTORE PUSH1 0x17 PUSH1 0x24 DUP3 ADD MSTORE PUSH32 0x43616E6E6F74207472616E7366657220746F2073656C66000000000000000000 PUSH1 0x44 DUP3 ADD MSTORE PUSH1 0x64 ADD PUSH2 0x2AF JUMP JUMPDEST PUSH1 0x3 DUP1 SLOAD PUSH1 0x1 PUSH1 0x1 PUSH1 0xA0 SHL SUB NOT AND PUSH1 0x1 PUSH1 0x1 PUSH1 0xA0 SHL SUB DUP4 DUP2 AND SWAP2 DUP3 OR SWAP1 SWAP3 SSTORE PUSH1 0x2 SLOAD PUSH1 0x40 MLOAD SWAP2 SWAP3 AND SWAP1 PUSH32 0xED8889F560326EB138920D842192F0EB3DD22B4F139C87A2C57538E05BAE1278 SWAP1 PUSH1 0x0 SWAP1 LOG3 POP JUMP JUMPDEST DUP1 MLOAD PUSH1 0x0 SUB PUSH2 0xB12 JUMPI PUSH1 0x40 MLOAD PUSH4 0x22CE3EDD PUSH1 0xE0 SHL DUP2 MSTORE PUSH1 0x4 ADD PUSH1 0x40 MLOAD DUP1 SWAP2 SUB SWAP1 REVERT JUMPDEST DUP4 DUP4 PUSH1 0x2 DUP2 GT ISZERO PUSH2 0xB25 JUMPI PUSH2 0xB25 PUSH2 0x1381 JUMP JUMPDEST SWAP1 DUP2 PUSH1 0x2 DUP2 GT ISZERO PUSH2 0xB38 JUMPI PUSH2 0xB38 PUSH2 0x1381 JUMP JUMPDEST SWAP1 MSTORE POP PUSH1 0x40 DUP5 ADD DUP3 DUP1 ISZERO PUSH2 0xB4E JUMPI PUSH2 0xB4E PUSH2 0x1381 JUMP JUMPDEST SWAP1 DUP2 DUP1 ISZERO PUSH2 0xB5E JUMPI PUSH2 0xB5E PUSH2 0x1381 JUMP JUMPDEST SWAP1 MSTORE POP PUSH1 0x60 SWAP1 SWAP4 ADD SWAP3 SWAP1 SWAP3 MSTORE POP POP JUMP JUMPDEST PUSH2 0xB76 PUSH2 0xFE3 JUMP JUMPDEST DUP1 MLOAD PUSH2 0xB82 SWAP1 DUP4 PUSH2 0xC35 JUMP JUMPDEST POP PUSH1 0x0 PUSH1 0x20 DUP3 ADD MSTORE SWAP2 SWAP1 POP JUMP JUMPDEST PUSH2 0xB9C DUP3 PUSH1 0x3 DUP4 MLOAD PUSH2 0xCAF JUMP JUMPDEST DUP2 MLOAD PUSH2 0xBA8 SWAP1 DUP3 PUSH2 0xDCE JUMP JUMPDEST POP POP POP JUMP JUMPDEST DUP2 MLOAD PUSH2 0xBBA SWAP1 PUSH1 0xC2 PUSH2 0xDF6 JUMP JUMPDEST POP PUSH2 0x629 DUP3 DUP3 PUSH1 0x40 MLOAD PUSH1 0x20 ADD PUSH2 0xBD2 SWAP2 DUP2 MSTORE PUSH1 0x20 ADD SWAP1 JUMP JUMPDEST PUSH1 0x40 MLOAD PUSH1 0x20 DUP2 DUP4 SUB SUB DUP2 MSTORE SWAP1 PUSH1 0x40 MSTORE PUSH2 0xC28 JUMP JUMPDEST PUSH2 0xBF1 DUP2 PUSH1 0x4 PUSH2 0xE5F JUMP JUMPDEST PUSH1 0x1 DUP2 PUSH1 0x20 ADD DUP2 DUP2 MLOAD PUSH2 0xC04 SWAP2 SWAP1 PUSH2 0x140F JUMP JUMPDEST SWAP1 MSTORE POP POP JUMP JUMPDEST PUSH2 0xC15 DUP2 PUSH1 0x7 PUSH2 0xE5F JUMP JUMPDEST PUSH1 0x1 DUP2 PUSH1 0x20 ADD DUP2 DUP2 MLOAD PUSH2 0xC04 SWAP2 SWAP1 PUSH2 0x1422 JUMP JUMPDEST PUSH2 0xB9C DUP3 PUSH1 0x2 DUP4 MLOAD PUSH2 0xCAF JUMP JUMPDEST PUSH1 0x40 DUP1 MLOAD DUP1 DUP3 ADD SWAP1 SWAP2 MSTORE PUSH1 0x60 DUP2 MSTORE PUSH1 0x0 PUSH1 0x20 DUP3 ADD MSTORE PUSH2 0xC55 PUSH1 0x20 DUP4 PUSH2 0x1435 JUMP JUMPDEST ISZERO PUSH2 0xC7D JUMPI PUSH2 0xC65 PUSH1 0x20 DUP4 PUSH2 0x1435 JUMP JUMPDEST PUSH2 0xC70 SWAP1 PUSH1 0x20 PUSH2 0x1422 JUMP JUMPDEST PUSH2 0xC7A SWAP1 DUP4 PUSH2 0x140F JUMP JUMPDEST SWAP2 POP JUMPDEST PUSH1 0x20 DUP1 DUP5 ADD DUP4 SWAP1 MSTORE PUSH1 0x40 MLOAD DUP1 DUP6 MSTORE PUSH1 0x0 DUP2 MSTORE SWAP1 DUP2 DUP5 ADD ADD DUP2 DUP2 LT ISZERO PUSH2 0xCA1 JUMPI PUSH1 0x0 DUP1 REVERT JUMPDEST PUSH1 0x40 MSTORE POP DUP3 SWAP1 POP JUMPDEST SWAP3 SWAP2 POP POP JUMP JUMPDEST PUSH1 0x17 DUP2 PUSH1 0x1 PUSH1 0x1 PUSH1 0x40 SHL SUB AND GT PUSH2 0xCDB JUMPI DUP3 MLOAD PUSH2 0xCD5 SWAP1 PUSH1 0xE0 PUSH1 0x5 DUP6 SWAP1 SHL AND DUP4 OR PUSH2 0xDF6 JUMP JUMPDEST POP POP POP POP JUMP JUMPDEST PUSH1 0xFF DUP2 PUSH1 0x1 PUSH1 0x1 PUSH1 0x40 SHL SUB AND GT PUSH2 0xD1B JUMPI DUP3 MLOAD PUSH2 0xD03 SWAP1 PUSH1 0x18 PUSH2 0x1FE0 PUSH1 0x5 DUP7 SWAP1 SHL AND OR PUSH2 0xDF6 JUMP JUMPDEST POP DUP3 MLOAD PUSH2 0xCD5 SWAP1 PUSH1 0x1 PUSH1 0x1 PUSH1 0x40 SHL SUB DUP4 AND PUSH1 0x1 PUSH2 0xE76 JUMP JUMPDEST PUSH2 0xFFFF DUP2 PUSH1 0x1 PUSH1 0x1 PUSH1 0x40 SHL SUB AND GT PUSH2 0xD5C JUMPI DUP3 MLOAD PUSH2 0xD44 SWAP1 PUSH1 0x19 PUSH2 0x1FE0 PUSH1 0x5 DUP7 SWAP1 SHL AND OR PUSH2 0xDF6 JUMP JUMPDEST POP DUP3 MLOAD PUSH2 0xCD5 SWAP1 PUSH1 0x1 PUSH1 0x1 PUSH1 0x40 SHL SUB DUP4 AND PUSH1 0x2 PUSH2 0xE76 JUMP JUMPDEST PUSH4 0xFFFFFFFF DUP2 PUSH1 0x1 PUSH1 0x1 PUSH1 0x40 SHL SUB AND GT PUSH2 0xD9F JUMPI DUP3 MLOAD PUSH2 0xD87 SWAP1 PUSH1 0x1A PUSH2 0x1FE0 PUSH1 0x5 DUP7 SWAP1 SHL AND OR PUSH2 0xDF6 JUMP JUMPDEST POP DUP3 MLOAD PUSH2 0xCD5 SWAP1 PUSH1 0x1 PUSH1 0x1 PUSH1 0x40 SHL SUB DUP4 AND PUSH1 0x4 PUSH2 0xE76 JUMP JUMPDEST DUP3 MLOAD PUSH2 0xDB6 SWAP1 PUSH1 0x1B PUSH2 0x1FE0 PUSH1 0x5 DUP7 SWAP1 SHL AND OR PUSH2 0xDF6 JUMP JUMPDEST POP DUP3 MLOAD PUSH2 0xCD5 SWAP1 PUSH1 0x1 PUSH1 0x1 PUSH1 0x40 SHL SUB DUP4 AND PUSH1 0x8 PUSH2 0xE76 JUMP JUMPDEST PUSH1 0x40 DUP1 MLOAD DUP1 DUP3 ADD SWAP1 SWAP2 MSTORE PUSH1 0x60 DUP2 MSTORE PUSH1 0x0 PUSH1 0x20 DUP3 ADD MSTORE PUSH2 0xDEF DUP4 DUP4 DUP5 MLOAD PUSH2 0xEFB JUMP JUMPDEST SWAP4 SWAP3 POP POP POP JUMP JUMPDEST PUSH1 0x40 DUP1 MLOAD DUP1 DUP3 ADD SWAP1 SWAP2 MSTORE PUSH1 0x60 DUP2 MSTORE PUSH1 0x0 PUSH1 0x20 DUP3 ADD MSTORE DUP3 MLOAD MLOAD PUSH1 0x0 PUSH2 0xE1B DUP3 PUSH1 0x1 PUSH2 0x140F JUMP JUMPDEST SWAP1 POP DUP5 PUSH1 0x20 ADD MLOAD DUP3 LT PUSH2 0xE3C JUMPI PUSH2 0xE3C DUP6 PUSH2 0xE37 DUP4 PUSH1 0x2 PUSH2 0x1457 JUMP JUMPDEST PUSH2 0xFCC JUMP JUMPDEST DUP5 MLOAD PUSH1 0x20 DUP4 DUP3 ADD ADD DUP6 DUP2 MSTORE8 POP DUP1 MLOAD DUP3 GT ISZERO PUSH2 0xE55 JUMPI DUP2 DUP2 MSTORE JUMPDEST POP SWAP4 SWAP5 SWAP4 POP POP POP POP JUMP JUMPDEST DUP2 MLOAD PUSH2 0xBA8 SWAP1 PUSH1 0x1F PUSH2 0x1FE0 PUSH1 0x5 DUP6 SWAP1 SHL AND OR PUSH2 0xDF6 JUMP JUMPDEST PUSH1 0x40 DUP1 MLOAD DUP1 DUP3 ADD SWAP1 SWAP2 MSTORE PUSH1 0x60 DUP2 MSTORE PUSH1 0x0 PUSH1 0x20 DUP3 ADD MSTORE DUP4 MLOAD MLOAD PUSH1 0x0 PUSH2 0xE9A DUP3 DUP6 PUSH2 0x140F JUMP JUMPDEST SWAP1 POP DUP6 PUSH1 0x20 ADD MLOAD DUP2 GT ISZERO PUSH2 0xEB7 JUMPI PUSH2 0xEB7 DUP7 PUSH2 0xE37 DUP4 PUSH1 0x2 PUSH2 0x1457 JUMP JUMPDEST PUSH1 0x0 PUSH1 0x1 PUSH2 0xEC7 DUP7 PUSH2 0x100 PUSH2 0x1552 JUMP JUMPDEST PUSH2 0xED1 SWAP2 SWAP1 PUSH2 0x1422 JUMP JUMPDEST SWAP1 POP DUP7 MLOAD DUP3 DUP2 ADD DUP8 DUP4 NOT DUP3 MLOAD AND OR DUP2 MSTORE POP DUP1 MLOAD DUP4 GT ISZERO PUSH2 0xEEF JUMPI DUP3 DUP2 MSTORE JUMPDEST POP SWAP6 SWAP7 SWAP6 POP POP POP POP POP POP JUMP JUMPDEST PUSH1 0x40 DUP1 MLOAD DUP1 DUP3 ADD SWAP1 SWAP2 MSTORE PUSH1 0x60 DUP2 MSTORE PUSH1 0x0 PUSH1 0x20 DUP3 ADD MSTORE DUP3 MLOAD DUP3 GT ISZERO PUSH2 0xF1E JUMPI PUSH1 0x0 DUP1 REVERT JUMPDEST DUP4 MLOAD MLOAD PUSH1 0x0 PUSH2 0xF2D DUP5 DUP4 PUSH2 0x140F JUMP JUMPDEST SWAP1 POP DUP6 PUSH1 0x20 ADD MLOAD DUP2 GT ISZERO PUSH2 0xF4A JUMPI PUSH2 0xF4A DUP7 PUSH2 0xE37 DUP4 PUSH1 0x2 PUSH2 0x1457 JUMP JUMPDEST DUP6 MLOAD DUP1 MLOAD DUP4 DUP3 ADD PUSH1 0x20 ADD SWAP2 PUSH1 0x0 SWAP2 DUP1 DUP6 GT ISZERO PUSH2 0xF64 JUMPI DUP5 DUP3 MSTORE JUMPDEST POP POP POP PUSH1 0x20 DUP7 ADD JUMPDEST PUSH1 0x20 DUP7 LT PUSH2 0xFA4 JUMPI DUP1 MLOAD DUP3 MSTORE PUSH2 0xF83 PUSH1 0x20 DUP4 PUSH2 0x140F JUMP JUMPDEST SWAP2 POP PUSH2 0xF90 PUSH1 0x20 DUP3 PUSH2 0x140F JUMP JUMPDEST SWAP1 POP PUSH2 0xF9D PUSH1 0x20 DUP8 PUSH2 0x1422 JUMP JUMPDEST SWAP6 POP PUSH2 0xF6C JUMP JUMPDEST MLOAD DUP2 MLOAD PUSH1 0x0 NOT PUSH1 0x20 DUP9 SWAP1 SUB PUSH2 0x100 EXP ADD SWAP1 DUP2 AND SWAP1 NOT SWAP2 SWAP1 SWAP2 AND OR SWAP1 MSTORE POP DUP5 SWAP2 POP POP SWAP4 SWAP3 POP POP POP JUMP JUMPDEST DUP2 MLOAD PUSH2 0xFD8 DUP4 DUP4 PUSH2 0xC35 JUMP JUMPDEST POP PUSH2 0xCD5 DUP4 DUP3 PUSH2 0xDCE JUMP JUMPDEST PUSH1 0x40 MLOAD DUP1 PUSH1 0x40 ADD PUSH1 0x40 MSTORE DUP1 PUSH2 0x100B PUSH1 0x40 MLOAD DUP1 PUSH1 0x40 ADD PUSH1 0x40 MSTORE DUP1 PUSH1 0x60 DUP2 MSTORE PUSH1 0x20 ADD PUSH1 0x0 DUP2 MSTORE POP SWAP1 JUMP JUMPDEST DUP2 MSTORE PUSH1 0x20 ADD PUSH1 0x0 DUP2 MSTORE POP SWAP1 JUMP JUMPDEST PUSH4 0x4E487B71 PUSH1 0xE0 SHL PUSH1 0x0 MSTORE PUSH1 0x41 PUSH1 0x4 MSTORE PUSH1 0x24 PUSH1 0x0 REVERT JUMPDEST PUSH1 0x40 MLOAD PUSH1 0x1F DUP3 ADD PUSH1 0x1F NOT AND DUP2 ADD PUSH1 0x1 PUSH1 0x1 PUSH1 0x40 SHL SUB DUP2 GT DUP3 DUP3 LT OR ISZERO PUSH2 0x1056 JUMPI PUSH2 0x1056 PUSH2 0x1018 JUMP JUMPDEST PUSH1 0x40 MSTORE SWAP2 SWAP1 POP JUMP JUMPDEST PUSH1 0x0 PUSH1 0x1 PUSH1 0x1 PUSH1 0x40 SHL SUB DUP3 GT ISZERO PUSH2 0x1077 JUMPI PUSH2 0x1077 PUSH2 0x1018 JUMP JUMPDEST POP PUSH1 0x1F ADD PUSH1 0x1F NOT AND PUSH1 0x20 ADD SWAP1 JUMP JUMPDEST PUSH1 0x0 PUSH2 0x1098 PUSH2 0x1093 DUP5 PUSH2 0x105E JUMP JUMPDEST PUSH2 0x102E JUMP JUMPDEST SWAP1 POP DUP3 DUP2 MSTORE DUP4 DUP4 DUP4 ADD GT ISZERO PUSH2 0x10AC JUMPI PUSH1 0x0 DUP1 REVERT JUMPDEST DUP3 DUP3 PUSH1 0x20 DUP4 ADD CALLDATACOPY PUSH1 0x0 PUSH1 0x20 DUP5 DUP4 ADD ADD MSTORE SWAP4 SWAP3 POP POP POP JUMP JUMPDEST PUSH1 0x0 DUP3 PUSH1 0x1F DUP4 ADD SLT PUSH2 0x10D4 JUMPI PUSH1 0x0 DUP1 REVERT JUMPDEST PUSH2 0xDEF DUP4 DUP4 CALLDATALOAD PUSH1 0x20 DUP6 ADD PUSH2 0x1085 JUMP JUMPDEST PUSH1 0x0 DUP1 PUSH1 0x0 PUSH1 0x60 DUP5 DUP7 SUB SLT ISZERO PUSH2 0x10F8 JUMPI PUSH1 0x0 DUP1 REVERT JUMPDEST DUP4 CALLDATALOAD SWAP3 POP PUSH1 0x20 DUP5 ADD CALLDATALOAD PUSH1 0x1 PUSH1 0x1 PUSH1 0x40 SHL SUB DUP1 DUP3 GT ISZERO PUSH2 0x1116 JUMPI PUSH1 0x0 DUP1 REVERT JUMPDEST PUSH2 0x1122 DUP8 DUP4 DUP9 ADD PUSH2 0x10C3 JUMP JUMPDEST SWAP4 POP PUSH1 0x40 DUP7 ADD CALLDATALOAD SWAP2 POP DUP1 DUP3 GT ISZERO PUSH2 0x1138 JUMPI PUSH1 0x0 DUP1 REVERT JUMPDEST POP PUSH2 0x1145 DUP7 DUP3 DUP8 ADD PUSH2 0x10C3 JUMP JUMPDEST SWAP2 POP POP SWAP3 POP SWAP3 POP SWAP3 JUMP JUMPDEST PUSH1 0x0 DUP1 PUSH1 0x0 DUP1 PUSH1 0x80 DUP6 DUP8 SUB SLT ISZERO PUSH2 0x1165 JUMPI PUSH1 0x0 DUP1 REVERT JUMPDEST DUP5 CALLDATALOAD PUSH1 0x1 PUSH1 0x1 PUSH1 0x40 SHL SUB DUP1 DUP3 GT ISZERO PUSH2 0x117C JUMPI PUSH1 0x0 DUP1 REVERT JUMPDEST DUP2 DUP8 ADD SWAP2 POP DUP8 PUSH1 0x1F DUP4 ADD SLT PUSH2 0x1190 JUMPI PUSH1 0x0 DUP1 REVERT JUMPDEST PUSH2 0x119F DUP9 DUP4 CALLDATALOAD PUSH1 0x20 DUP6 ADD PUSH2 0x1085 JUMP JUMPDEST SWAP6 POP PUSH1 0x20 DUP8 ADD CALLDATALOAD SWAP2 POP DUP1 DUP3 AND DUP3 EQ PUSH2 0x11B6 JUMPI PUSH1 0x0 DUP1 REVERT JUMPDEST POP SWAP3 POP PUSH1 0x40 DUP6 ADD CALLDATALOAD PUSH4 0xFFFFFFFF DUP2 AND DUP2 EQ PUSH2 0x11D0 JUMPI PUSH1 0x0 DUP1 REVERT JUMPDEST SWAP4 SWAP7 SWAP3 SWAP6 POP SWAP3 SWAP4 PUSH1 0x60 ADD CALLDATALOAD SWAP3 POP POP JUMP JUMPDEST PUSH1 0x0 JUMPDEST DUP4 DUP2 LT ISZERO PUSH2 0x11FB JUMPI DUP2 DUP2 ADD MLOAD DUP4 DUP3 ADD MSTORE PUSH1 0x20 ADD PUSH2 0x11E3 JUMP JUMPDEST POP POP PUSH1 0x0 SWAP2 ADD MSTORE JUMP JUMPDEST PUSH1 0x0 DUP2 MLOAD DUP1 DUP5 MSTORE PUSH2 0x121C DUP2 PUSH1 0x20 DUP7 ADD PUSH1 0x20 DUP7 ADD PUSH2 0x11E0 JUMP JUMPDEST PUSH1 0x1F ADD PUSH1 0x1F NOT AND SWAP3 SWAP1 SWAP3 ADD PUSH1 0x20 ADD SWAP3 SWAP2 POP POP JUMP JUMPDEST PUSH1 0x20 DUP2 MSTORE PUSH1 0x0 PUSH2 0xDEF PUSH1 0x20 DUP4 ADD DUP5 PUSH2 0x1204 JUMP JUMPDEST PUSH1 0x0 PUSH1 0x20 DUP3 DUP5 SUB SLT ISZERO PUSH2 0x1255 JUMPI PUSH1 0x0 DUP1 REVERT JUMPDEST DUP2 CALLDATALOAD PUSH1 0x1 PUSH1 0x1 PUSH1 0xA0 SHL SUB DUP2 AND DUP2 EQ PUSH2 0xDEF JUMPI PUSH1 0x0 DUP1 REVERT JUMPDEST PUSH1 0x0 PUSH1 0x20 DUP3 DUP5 SUB SLT ISZERO PUSH2 0x127E JUMPI PUSH1 0x0 DUP1 REVERT JUMPDEST POP CALLDATALOAD SWAP2 SWAP1 POP JUMP JUMPDEST PUSH1 0x0 PUSH1 0x20 DUP3 DUP5 SUB SLT ISZERO PUSH2 0x1297 JUMPI PUSH1 0x0 DUP1 REVERT JUMPDEST DUP2 MLOAD PUSH1 0x1 PUSH1 0x1 PUSH1 0x40 SHL SUB DUP2 GT ISZERO PUSH2 0x12AD JUMPI PUSH1 0x0 DUP1 REVERT JUMPDEST DUP3 ADD PUSH1 0x1F DUP2 ADD DUP5 SGT PUSH2 0x12BE JUMPI PUSH1 0x0 DUP1 REVERT JUMPDEST DUP1 MLOAD PUSH2 0x12CC PUSH2 0x1093 DUP3 PUSH2 0x105E JUMP JUMPDEST DUP2 DUP2 MSTORE DUP6 PUSH1 0x20 DUP4 DUP6 ADD ADD GT ISZERO PUSH2 0x12E1 JUMPI PUSH1 0x0 DUP1 REVERT JUMPDEST PUSH2 0x12F2 DUP3 PUSH1 0x20 DUP4 ADD PUSH1 0x20 DUP7 ADD PUSH2 0x11E0 JUMP JUMPDEST SWAP6 SWAP5 POP POP POP POP POP JUMP JUMPDEST PUSH4 0x4E487B71 PUSH1 0xE0 SHL PUSH1 0x0 MSTORE PUSH1 0x32 PUSH1 0x4 MSTORE PUSH1 0x24 PUSH1 0x0 REVERT JUMPDEST PUSH1 0x1 DUP2 DUP2 SHR SWAP1 DUP3 AND DUP1 PUSH2 0x1325 JUMPI PUSH1 0x7F DUP3 AND SWAP2 POP JUMPDEST PUSH1 0x20 DUP3 LT DUP2 SUB PUSH2 0x1345 JUMPI PUSH4 0x4E487B71 PUSH1 0xE0 SHL PUSH1 0x0 MSTORE PUSH1 0x22 PUSH1 0x4 MSTORE PUSH1 0x24 PUSH1 0x0 REVERT JUMPDEST POP SWAP2 SWAP1 POP JUMP JUMPDEST PUSH1 0x0 DUP1 PUSH1 0x0 DUP1 PUSH1 0x80 DUP6 DUP8 SUB SLT ISZERO PUSH2 0x1361 JUMPI PUSH1 0x0 DUP1 REVERT JUMPDEST POP POP DUP3 MLOAD PUSH1 0x20 DUP5 ADD MLOAD PUSH1 0x40 DUP6 ADD MLOAD PUSH1 0x60 SWAP1 SWAP6 ADD MLOAD SWAP2 SWAP7 SWAP1 SWAP6 POP SWAP1 SWAP3 POP SWAP1 POP JUMP JUMPDEST PUSH4 0x4E487B71 PUSH1 0xE0 SHL PUSH1 0x0 MSTORE PUSH1 0x21 PUSH1 0x4 MSTORE PUSH1 0x24 PUSH1 0x0 REVERT JUMPDEST PUSH1 0x1 PUSH1 0x1 PUSH1 0x40 SHL SUB DUP7 AND DUP2 MSTORE PUSH1 0xA0 PUSH1 0x20 DUP3 ADD MSTORE PUSH1 0x0 PUSH2 0x13B9 PUSH1 0xA0 DUP4 ADD DUP8 PUSH2 0x1204 JUMP JUMPDEST PUSH2 0xFFFF SWAP6 SWAP1 SWAP6 AND PUSH1 0x40 DUP4 ADD MSTORE POP PUSH4 0xFFFFFFFF SWAP3 SWAP1 SWAP3 AND PUSH1 0x60 DUP4 ADD MSTORE PUSH1 0x80 SWAP1 SWAP2 ADD MSTORE SWAP3 SWAP2 POP POP JUMP JUMPDEST PUSH1 0x0 PUSH1 0x20 DUP3 DUP5 SUB SLT ISZERO PUSH2 0x13F2 JUMPI PUSH1 0x0 DUP1 REVERT JUMPDEST POP MLOAD SWAP2 SWAP1 POP JUMP JUMPDEST PUSH4 0x4E487B71 PUSH1 0xE0 SHL PUSH1 0x0 MSTORE PUSH1 0x11 PUSH1 0x4 MSTORE PUSH1 0x24 PUSH1 0x0 REVERT JUMPDEST DUP1 DUP3 ADD DUP1 DUP3 GT ISZERO PUSH2 0xCA9 JUMPI PUSH2 0xCA9 PUSH2 0x13F9 JUMP JUMPDEST DUP2 DUP2 SUB DUP2 DUP2 GT ISZERO PUSH2 0xCA9 JUMPI PUSH2 0xCA9 PUSH2 0x13F9 JUMP JUMPDEST PUSH1 0x0 DUP3 PUSH2 0x1452 JUMPI PUSH4 0x4E487B71 PUSH1 0xE0 SHL PUSH1 0x0 MSTORE PUSH1 0x12 PUSH1 0x4 MSTORE PUSH1 0x24 PUSH1 0x0 REVERT JUMPDEST POP MOD SWAP1 JUMP JUMPDEST DUP1 DUP3 MUL DUP2 ISZERO DUP3 DUP3 DIV DUP5 EQ OR PUSH2 0xCA9 JUMPI PUSH2 0xCA9 PUSH2 0x13F9 JUMP JUMPDEST PUSH1 0x1 DUP2 DUP2 JUMPDEST DUP1 DUP6 GT ISZERO PUSH2 0x14A9 JUMPI DUP2 PUSH1 0x0 NOT DIV DUP3 GT ISZERO PUSH2 0x148F JUMPI PUSH2 0x148F PUSH2 0x13F9 JUMP JUMPDEST DUP1 DUP6 AND ISZERO PUSH2 0x149C JUMPI SWAP2 DUP2 MUL SWAP2 JUMPDEST SWAP4 DUP5 SHR SWAP4 SWAP1 DUP1 MUL SWAP1 PUSH2 0x1473 JUMP JUMPDEST POP SWAP3 POP SWAP3 SWAP1 POP JUMP JUMPDEST PUSH1 0x0 DUP3 PUSH2 0x14C0 JUMPI POP PUSH1 0x1 PUSH2 0xCA9 JUMP JUMPDEST DUP2 PUSH2 0x14CD JUMPI POP PUSH1 0x0 PUSH2 0xCA9 JUMP JUMPDEST DUP2 PUSH1 0x1 DUP2 EQ PUSH2 0x14E3 JUMPI PUSH1 0x2 DUP2 EQ PUSH2 0x14ED JUMPI PUSH2 0x1509 JUMP JUMPDEST PUSH1 0x1 SWAP2 POP POP PUSH2 0xCA9 JUMP JUMPDEST PUSH1 0xFF DUP5 GT ISZERO PUSH2 0x14FE JUMPI PUSH2 0x14FE PUSH2 0x13F9 JUMP JUMPDEST POP POP PUSH1 0x1 DUP3 SHL PUSH2 0xCA9 JUMP JUMPDEST POP PUSH1 0x20 DUP4 LT PUSH2 0x133 DUP4 LT AND PUSH1 0x4E DUP5 LT PUSH1 0xB DUP5 LT AND OR ISZERO PUSH2 0x152C JUMPI POP DUP2 DUP2 EXP PUSH2 0xCA9 JUMP JUMPDEST PUSH2 0x1536 DUP4 DUP4 PUSH2 0x146E JUMP JUMPDEST DUP1 PUSH1 0x0 NOT DIV DUP3 GT ISZERO PUSH2 0x154A JUMPI PUSH2 0x154A PUSH2 0x13F9 JUMP JUMPDEST MUL SWAP4 SWAP3 POP POP POP JUMP JUMPDEST PUSH1 0x0 PUSH2 0xDEF DUP4 DUP4 PUSH2 0x14B1 JUMP INVALID LOG2 PUSH5 0x6970667358 0x22 SLT KECCAK256 0xF6 0xD7 0xB3 PUSH14 0x89ABFF6F7B8230EB2D60CDB186BF ADDMOD PREVRANDAO PUSH28 0xDBC632FE5F45286A645CA964736F6C63430008180033636F6E737420 PUSH28 0x20657468657273207D203D20617761697420696D706F727428276E70 PUSH14 0x3A65746865727340362E31302E30 0x27 0x29 EXTCODESIZE PUSH4 0x6F6E7374 KECCAK256 BASEFEE PUSH2 0x7368 KECCAK256 RETURNDATASIZE KECCAK256 PUSH2 0x7761 PUSH10 0x7420696D706F72742827 PUSH15 0x706D3A697066732D6F6E6C792D6861 PUSH20 0x6840342E302E3027293B636F6E73742061706952 PUSH6 0x73706F6E7365 KECCAK256 RETURNDATASIZE KECCAK256 PUSH2 0x7761 PUSH10 0x742046756E6374696F6E PUSH20 0x2E6D616B654874747052657175657374287B2020 KECCAK256 KECCAK256 PUSH22 0x726C3A206068747470733A2F2F6170692E6272696467 PUSH6 0x646174616F75 PUSH21 0x7075742E636F6D2F6170692F76322F4F446174612F PUSH21 0x6573742F50726F70657274792827505F3564626131 PUSH7 0x62393461613430 CALLDATALOAD CALLDATALOAD PUSH3 0x396632 CODECOPY CALLDATASIZE CODECOPY CALLDATASIZE PUSH7 0x27293F61636365 PUSH20 0x735F746F6B656E3D366261636135343737343263 CALLDATASIZE PUSH7 0x39366136666637 BALANCE PUSH3 0x313338 CALLVALUE ORIGIN CALLVALUE PUSH7 0x3231602C7D293B PUSH4 0x6F6E7374 KECCAK256 PUSH19 0x65616C45737461746541646472657373203D20 PUSH2 0x7069 MSTORE PUSH6 0x73706F6E7365 0x2E PUSH5 0x6174612E55 PUSH15 0x706172736564416464726573733B63 PUSH16 0x6E737420796561724275696C74203D20 0x4E PUSH22 0x6D62657228617069526573706F6E73652E646174612E MSIZE PUSH6 0x61724275696C PUSH21 0x293B636F6E7374206C6F7453697A65537175617265 CHAINID PUSH6 0x6574203D204E PUSH22 0x6D62657228617069526573706F6E73652E646174612E 0x4C PUSH16 0x7453697A655371756172654665657429 EXTCODESIZE PUSH4 0x6F6E7374 KECCAK256 PUSH13 0x6976696E6741726561203D204E PUSH22 0x6D62657228617069526573706F6E73652E646174612E 0x4C PUSH10 0x76696E6741726561293B PUSH4 0x6F6E7374 KECCAK256 PUSH3 0x656472 PUSH16 0x6F6D73546F74616C203D204E756D6265 PUSH19 0x28617069526573706F6E73652E646174612E42 PUSH6 0x64726F6F6D73 SLOAD PUSH16 0x74616C293B636F6E7374206D65746164 PUSH2 0x7461 KECCAK256 RETURNDATASIZE KECCAK256 PUSH28 0x6E616D653A20605265616C2045737461746520546F6B656E602C6174 PUSH21 0x726962757465733A205B7B2074726169745F747970 PUSH6 0x3A2060726561 PUSH13 0x45737461746541646472657373 PUSH1 0x2C KECCAK256 PUSH23 0x616C75653A207265616C45737461746541646472657373 KECCAK256 PUSH30 0x2C7B2074726169745F747970653A2060796561724275696C74602C207661 PUSH13 0x75653A20796561724275696C74 KECCAK256 PUSH30 0x2C7B2074726169745F747970653A20606C6F7453697A6553717561726546 PUSH6 0x6574602C2076 PUSH2 0x6C75 PUSH6 0x3A206C6F7453 PUSH10 0x7A655371756172654665 PUSH6 0x74207D2C7B20 PUSH21 0x726169745F747970653A20606C6976696E67417265 PUSH2 0x602C KECCAK256 PUSH23 0x616C75653A206C6976696E6741726561207D2C7B207472 PUSH2 0x6974 PUSH0 PUSH21 0x7970653A2060626564726F6F6D73546F74616C602C KECCAK256 PUSH23 0x616C75653A20626564726F6F6D73546F74616C207D5D7D EXTCODESIZE PUSH4 0x6F6E7374 KECCAK256 PUSH14 0x65746164617461537472696E6720 RETURNDATASIZE KECCAK256 BLOBBASEFEE MSTORE8 0x4F 0x4E 0x2E PUSH20 0x7472696E67696679286D65746164617461293B63 PUSH16 0x6E73742069706673436964203D206177 PUSH2 0x6974 KECCAK256 BASEFEE PUSH2 0x7368 0x2E PUSH16 0x66286D65746164617461537472696E67 0x29 EXTCODESIZE PUSH19 0x657475726E2046756E6374696F6E732E656E63 PUSH16 0x6465537472696E672860697066733A2F 0x2F 0x24 PUSH28 0x697066734369647D60293B636F6E7374207B20657468657273207D20 RETURNDATASIZE KECCAK256 PUSH2 0x7761 PUSH10 0x7420696D706F72742827 PUSH15 0x706D3A65746865727340362E31302E ADDRESS 0x27 0x29 EXTCODESIZE PUSH4 0x6F6E7374 KECCAK256 PUSH2 0x6269 NUMBER PUSH16 0x646572203D206574686572732E416269 NUMBER PUSH16 0x6465722E64656661756C74416269436F PUSH5 0x657228293B PUSH4 0x6F6E7374 KECCAK256 PUSH21 0x6F6B656E4964203D20617267735B305D3B636F6E73 PUSH21 0x20617069526573706F6E7365203D20617761697420 CHAINID PUSH22 0x6E6374696F6E732E6D616B6548747470526571756573 PUSH21 0x287B2020202075726C3A206068747470733A2F2F61 PUSH17 0x692E627269646765646174616F75747075 PUSH21 0x2E636F6D2F6170692F76322F4F446174612F746573 PUSH21 0x2F50726F70657274792827505F3564626131666239 CALLVALUE PUSH2 0x6134 ADDRESS CALLDATALOAD CALLDATALOAD PUSH3 0x396632 CODECOPY CALLDATASIZE CODECOPY CALLDATASIZE PUSH7 0x27293F61636365 PUSH20 0x735F746F6B656E3D366261636135343737343263 CALLDATASIZE PUSH7 0x39366136666637 BALANCE PUSH3 0x313338 CALLVALUE ORIGIN CALLVALUE PUSH7 0x3231602C7D293B PUSH4 0x6F6E7374 KECCAK256 PUSH13 0x6973745072696365203D204E75 PUSH14 0x62657228617069526573706F6E73 PUSH6 0x2E646174612E 0x4C PUSH10 0x73745072696365293B63 PUSH16 0x6E7374206F726967696E616C4C697374 POP PUSH19 0x696365203D204E756D62657228617069526573 PUSH17 0x6F6E73652E646174612E4F726967696E61 PUSH13 0x4C6973745072696365293B636F PUSH15 0x737420746178417373657373656456 PUSH2 0x6C75 PUSH6 0x203D204E756D PUSH3 0x657228 PUSH2 0x7069 MSTORE PUSH6 0x73706F6E7365 0x2E PUSH5 0x6174612E54 PUSH2 0x7841 PUSH20 0x73657373656456616C7565293B636F6E73742065 PUSH15 0x636F646564203D20616269436F6465 PUSH19 0x2E656E636F6465285B6075696E74323536602C KECCAK256 PUSH1 0x75 PUSH10 0x6E74323536602C206075 PUSH10 0x6E74323536602C206075 PUSH10 0x6E74323536605D2C205B PUSH21 0x6F6B656E49642C206C69737450726963652C206F72 PUSH10 0x67696E616C4C69737450 PUSH19 0x6963652C20746178417373657373656456616C PUSH22 0x655D293B72657475726E206574686572732E67657442 PUSH26 0x74657328656E636F646564293B00000000000000000000000000 "
		},
		"gasEstimates": {
			"creation": {
				"codeDepositCost": "1104800",
				"executionCost": "infinite",
				"totalCost": "infinite"
			},
			"external": {
				"acceptOwnership()": "52331",
				"getNftMetadata()": "infinite",
				"getPriceDetails(uint256)": "2805",
				"getPrices()": "infinite",
				"handleOracleFulfillment(bytes32,bytes,bytes)": "infinite",
				"owner()": "2335",
				"setAutomationForwarder(address)": "26722",
				"transferOwnership(address)": "30489",
				"updatePriceDetails(string,uint64,uint32,bytes32)": "infinite"
			},
			"internal": {
				"fulfillRequest(bytes32,bytes memory,bytes memory)": "infinite"
			}
		},
		"methodIdentifiers": {
			"acceptOwnership()": "79ba5097",
			"getNftMetadata()": "e6b46ff5",
			"getPriceDetails(uint256)": "f0ed2e80",
			"getPrices()": "bd9a548b",
			"handleOracleFulfillment(bytes32,bytes,bytes)": "0ca76175",
			"owner()": "8da5cb5b",
			"setAutomationForwarder(address)": "d40d17bc",
			"transferOwnership(address)": "f2fde38b",
			"updatePriceDetails(string,uint64,uint32,bytes32)": "a843a0ab"
		}
	},
	"abi": [
		{
			"inputs": [
				{
					"internalType": "address",
					"name": "functionsRouterAddress",
					"type": "address"
				}
			],
			"stateMutability": "nonpayable",
			"type": "constructor"
		},
		{
			"inputs": [],
			"name": "EmptyArgs",
			"type": "error"
		},
		{
			"inputs": [],
			"name": "EmptySource",
			"type": "error"
		},
		{
			"inputs": [],
			"name": "NoInlineSecrets",
			"type": "error"
		},
		{
			"inputs": [],
			"name": "OnlyAutomationForwarderOrOwnerCanCall",
			"type": "error"
		},
		{
			"inputs": [],
			"name": "OnlyRouterCanFulfill",
			"type": "error"
		},
		{
			"anonymous": false,
			"inputs": [
				{
					"indexed": true,
					"internalType": "address",
					"name": "from",
					"type": "address"
				},
				{
					"indexed": true,
					"internalType": "address",
					"name": "to",
					"type": "address"
				}
			],
			"name": "OwnershipTransferRequested",
			"type": "event"
		},
		{
			"anonymous": false,
			"inputs": [
				{
					"indexed": true,
					"internalType": "address",
					"name": "from",
					"type": "address"
				},
				{
					"indexed": true,
					"internalType": "address",
					"name": "to",
					"type": "address"
				}
			],
			"name": "OwnershipTransferred",
			"type": "event"
		},
		{
			"anonymous": false,
			"inputs": [
				{
					"indexed": true,
					"internalType": "bytes32",
					"name": "id",
					"type": "bytes32"
				}
			],
			"name": "RequestFulfilled",
			"type": "event"
		},
		{
			"anonymous": false,
			"inputs": [
				{
					"indexed": true,
					"internalType": "bytes32",
					"name": "id",
					"type": "bytes32"
				}
			],
			"name": "RequestSent",
			"type": "event"
		},
		{
			"inputs": [],
			"name": "acceptOwnership",
			"outputs": [],
			"stateMutability": "nonpayable",
			"type": "function"
		},
		{
			"inputs": [],
			"name": "getNftMetadata",
			"outputs": [
				{
					"internalType": "string",
					"name": "",
					"type": "string"
				}
			],
			"stateMutability": "view",
			"type": "function"
		},
		{
			"inputs": [
				{
					"internalType": "uint256",
					"name": "tokenId",
					"type": "uint256"
				}
			],
			"name": "getPriceDetails",
			"outputs": [
				{
					"components": [
						{
							"internalType": "uint80",
							"name": "listPrice",
							"type": "uint80"
						},
						{
							"internalType": "uint80",
							"name": "originalListPrice",
							"type": "uint80"
						},
						{
							"internalType": "uint80",
							"name": "taxAssessedValue",
							"type": "uint80"
						}
					],
					"internalType": "struct RealEstatePriceDetails.PriceDetails",
					"name": "",
					"type": "tuple"
				}
			],
			"stateMutability": "view",
			"type": "function"
		},
		{
			"inputs": [],
			"name": "getPrices",
			"outputs": [
				{
					"internalType": "string",
					"name": "",
					"type": "string"
				}
			],
			"stateMutability": "view",
			"type": "function"
		},
		{
			"inputs": [
				{
					"internalType": "bytes32",
					"name": "requestId",
					"type": "bytes32"
				},
				{
					"internalType": "bytes",
					"name": "response",
					"type": "bytes"
				},
				{
					"internalType": "bytes",
					"name": "err",
					"type": "bytes"
				}
			],
			"name": "handleOracleFulfillment",
			"outputs": [],
			"stateMutability": "nonpayable",
			"type": "function"
		},
		{
			"inputs": [],
			"name": "owner",
			"outputs": [
				{
					"internalType": "address",
					"name": "",
					"type": "address"
				}
			],
			"stateMutability": "view",
			"type": "function"
		},
		{
			"inputs": [
				{
					"internalType": "address",
					"name": "automationForwarderAddress",
					"type": "address"
				}
			],
			"name": "setAutomationForwarder",
			"outputs": [],
			"stateMutability": "nonpayable",
			"type": "function"
		},
		{
			"inputs": [
				{
					"internalType": "address",
					"name": "to",
					"type": "address"
				}
			],
			"name": "transferOwnership",
			"outputs": [],
			"stateMutability": "nonpayable",
			"type": "function"
		},
		{
			"inputs": [
				{
					"internalType": "string",
					"name": "tokenId",
					"type": "string"
				},
				{
					"internalType": "uint64",
					"name": "subscriptionId",
					"type": "uint64"
				},
				{
					"internalType": "uint32",
					"name": "gasLimit",
					"type": "uint32"
				},
				{
					"internalType": "bytes32",
					"name": "donID",
					"type": "bytes32"
				}
			],
			"name": "updatePriceDetails",
			"outputs": [
				{
					"internalType": "bytes32",
					"name": "requestId",
					"type": "bytes32"
				}
			],
			"stateMutability": "nonpayable",
			"type": "function"
		}
	]
}